:1000000058570020A5010000A1010000A101000037
:1000100000000000000000000000000000000000E0
:10002000000000000000000000000000A10100002E
:100030000000000000000000B10A0000F50A000006
:10004000A1010000A1010000A1010000A101000028
:10005000A1010000A1010000712C0000A10100001D
:10006000A1010000A1010000A1010000A101000008
:10007000A1010000A1010000A1010000ED29000084
:100080005D2A0000A1010000A1010000A101000003
:10009000D5320000E9320000A1010000A1010000FA
:1000A000A1010000A1010000A1010000A1010000C8
:1000B000A1010000A1010000A101000010B5064C43
:1000C0002378002B07D1054B002B02D0044800E019
:1000D00000BF0123237010BD2C0000200000000091
:1000E000403D0000084B10B5002B03D007490848DD
:1000F00000E000BF07480368002B00D110BD064B8D
:10010000002BFBD09847F9E70000000030000020EA
:10011000403D0000403D00000000000010B5094BCC
:100120001A6801321A60802000029823C021C90594
:10013000C85005490020054B98470120044B9847BB
:10014000EDE7C04648000020A83A00001D3A000034
:100150003918000010B582B0094B9847002301936D
:10016000013300930023802206490748074CA0472B
:10017000012800D0FEE7064B984702B010BDC046EC
:10018000610A0000BC3A00001D010000511500008A
:10019000790A000010B5014B984710BD0505000015
:1001A000FEE7000010B5104A104B9A4209D00F4BE1
:1001B0000D4A03E011681960043304320C498B4284
:1001C000F8D30C4B02E000221A6004330A4A93422F
:1001D000F9D30A4AFF210A4B8B439360094B984796
:1001E000094B9847FEE7C046403D00000000002054
:1001F0002C0000202C0000205837002000ED00E0EB
:10020000000000003D3A00006D33000010B5094ABF
:10021000D16980235B010B43D3614021F823064A57
:10022000D150064B9847020005490648064B9847AF
:1002300010BDC04600080040001C00409532000080
:1002400000300042943000202D23000010B5094AF0
:10025000D16980239B010B43D3614021F823064AD7
:10026000D150064B9847020005490648064B98476F
:1002700010BDC04600080040001C00409532000040
:1002800000340042603000202D230000024A136930
:1002900020210B43136170470008004010B5034B49
:1002A000984703490348044B984710BD8D0200004E
:1002B00000400041183000200D210000F0B5C64676
:1002C00000B5C024E40580235B0263608223DB0564
:1002D000234A9A62234A9A6250215A5C042082433C
:1002E0005A545A5C0126B24301252A43D2B25A54C9
:1002F00018395A5C0B308446824302273A43D2B203
:100300005A548022D2026261A2608022D2059046B5
:100310009A62154999625221585CB0432843C0B291
:1003200058543920195C624691433943C9B2195473
:10033000802109036161A16042469A620B4A9A6278
:1003400053215A5CB2432A43D2B25A541A5C4439FC
:100350000A4020210A43D2B21A5404BC9046F0BD90
:1003600000000240010002C0040000C0080000C0FC
:10037000064B4021D02299500331083A9950044A43
:10038000D3693F390B43D3617047C046001C00401E
:100390000008004010B5044B984704490448054B39
:1003A0009847054B984710BD7103000000080042B4
:1003B0007C30002059210000BD020000034A516931
:1003C00080235B000B4353617047C0460008004028
:1003D00010B5064B9847482205490120054B984720
:1003E0000548064B0360064B984710BDBD0300004F
:1003F000C43A00005D2400005C3000200020004072
:10040000FD32000030B58223DB055922995C0125BD
:10041000A94301242143C9B299543C20195C4A3AAA
:10042000114060221143C9B2195458215A5CAA43A1
:100430002243D2B25A541A5C49398A4306210A43EC
:10044000D2B21A5430BD000010B5084A1169802399
:100450005B000B4313614021E823054AD150054955
:100460000548064B9847064B984710BD00080040CA
:10047000001C0040001C004234300020851F00009A
:100480000504000030B58223DB05CB22995C0125F1
:10049000A94301242143C9B29954B520195CBC3A3F
:1004A000114060221143C9B21954CA215A5CAA43AF
:1004B0002243D2B25A541A5CBB398A4306210A43FA
:1004C000D2B21A5430BD000010B5084A1169802319
:1004D0009B000B4313614021EC23054AD150054991
:1004E0000548064B9847064B984710BD000800404A
:1004F000001C004000200042F02F0020851F00005B
:100500008504000010B5134B9847C023DB058022FB
:10051000120298215A5010395A508223DB05A82222
:100520000D499950C02109069950CF215A5C0120EC
:1005300082435A54094B9847094B9847094B9847AF
:10054000094B9847094B9847094B9847094B9847DF
:1005500010BDC046E92A0000008000409D02000056
:10056000950300000D0200004D020000D1030000C1
:1005700049040000C90400007047000010B594B0A1
:100580006B46129310A90B4B9847002407E0129B6F
:100590001A5D09490020094B98470134E4B210ABB9
:1005A0001A7B9442F3D306490020044B984714B0B9
:1005B00010BDC04601200000E03A00001D3A0000D6
:1005C000F43A0000F0B5CE46474680B589B001AB9D
:1005D00000261E70012291465A7002229A70013242
:1005E000DA7004AD1B4A04922E71069304232B7318
:1005F0006E73194C194A01212000194FB847200089
:10060000184B984729002000174B98469847174BDE
:1006100004934B466B7329002000C047144A002105
:100620002000B847134B029380235B00039302AB77
:10063000002200212000104DA847104B0293039682
:1006400002AB012201212000A84709B00CBC904652
:100650009946F0BD5A0400003430002079050000AE
:1006600071200000D91F000039200000A5000010F3
:100670007D05000069040000C12000009600001004
:100680007047704770B50C4C0123A3600B4AE260C1
:100690002374C822E2610A4A22622422A354094D2B
:1006A00021002800084EB047210014312800B0472F
:1006B0002800064B984770BD4C01002081060000C1
:1006C0008306000094300020AD2300007123000059
:1006D00010B5034B9847034B9847034B984710BD01
:1006E000C933000055010000C115000010B5014BD1
:1006F000984710BDD1060000030008334360012273
:1007000052428260C360036100230360704700238C
:100710000361704743684B609A688A609A685160C9
:1007200099600861036801330360704730B50C6855
:10073000631C02D00200083202E0026904E01A00E1
:1007400053681D68AC42FAD253684B6099608A6066
:100750005160086103680133036030BD036942687A
:10076000816891608268416851605A68904206D001
:10077000002202611A68013A1A601868704782689C
:100780005A60F5E710B5114A53071BD0D11D072356
:100790009943A0239B015B1A9B180A000C490A602D
:1007A00000204860D318083B0724A3438B6058609F
:1007B0001860981A50601360C860086180231B0697
:1007C0004B6110BDA0239B01E8E7C0469C010020BF
:1007D0009C29002010B5124B1A68824219D359681F
:1007E0005C18A04203D1406809185960180041689C
:1007F0004418A24211D10A4CA468A2420BD05268FC
:10080000891841601A6812680260984200D0186026
:1008100010BD1300E0E70460F7E70260F5E7C046AB
:100820009C29002070B504002F4B98472F4B9B68E4
:10083000002B0FD02D4B5B6923424AD1002C0CD0EA
:100840000834630709D007239C430834234204D0AB
:1008500072B6FEE7264B9847ECE7002C3BD0234BC3
:100860001B699C4239D8214B1D6801E02B00150003
:100870006A68944202D92A68002AF7D11B4A926812
:1008800095422CD01E6808362A681A606B681B1BBC
:10089000102B08D92819420701D072B6FEE7436031
:1008A0006C60144B98476968104A13695B1A1361AE
:1008B000D268934201D20D4AD3600C4B5B690B4363
:1008C0006B6000232B600C4B9847730709D072B6FE
:1008D000FEE70026F7E70026F5E70026F3E7002607
:1008E000F1E7300070BDC046291600009C290020A9
:1008F00085070000D50700004517000070B50028E7
:1009000020D00500083D6B680F4A52691A4201D198
:1009100072B6FEE7010008390968002901D072B6F5
:10092000FEE70838040093434360084B9847636828
:10093000054A11698C46634413612800044B9847AB
:10094000044B984770BDC0469C2900202916000022
:10095000D50700004517000082B000230193064B25
:100960001B68013301D072B6FEE772B6019B002B03
:10097000FCD002B07047C04600000020000000001C
:100980000B4A13681868203080F30988022080F32E
:100990001488BFF36F8F3FBCAE4608BC04BC62B680
:1009A0001847C046C046C046C046C046C046C046BE
:1009B0008C2A0020054B00221A6005490A6005496F
:1009C000054A116007221A607047C04610E000E037
:1009D00018E000E09F0F000014E000E010B5031FD6
:1009E000802464041C60043B1960043B02491960C4
:1009F000143B1A60403810BD5909000010B50C4B6B
:100A00001968FF2212040A431A601968FF221206AD
:100A10000A431A60074B98470022074B1A60074B9E
:100A20009847074B9847074B9847002010BDC04692
:100A300020ED00E0B5090000000000208109000061
:100A40007D1800005909000080225205034B1A60EE
:100A5000BFF34F8FBFF36F8F7047C04604ED00E0C8
:100A600072B6044A136801331360BFF34F8FBFF3AC
:100A70006F8F704700000020064B1B68002B01D1D0
:100A800072B6FEE7013B034A1360002B00D162B649
:100A90007047C04600000020EFF3108072B6704728
:100AA00080F3108870470000000000000000000084
:100AB000EFF309800E4B1A6820381060F0C04446EE
:100AC0004D4656465F46F0C008B572B600F0D6FEF9
:100AD00062B60CBC116808681030F0C8A046A94680
:100AE000B246BB4680F309882038F0C81847C04694
:100AF0008C2A002010B5074B98470400064B9847F6
:100B0000002803D080225205044B1A602000044BB9
:100B1000984710BD990A00004516000004ED00E05A
:100B2000A10A000010B50400064B9847A26BE36BC6
:100B30009A4204D00024044B9847200010BD0124A1
:100B4000F9E7C046610A0000790A000010B5040008
:100B5000054B9847A36B002B04D00024034B984708
:100B6000200010BD0124F9E7610A0000790A0000A5
:100B700070B504001600856B026C002A0AD1036868
:100B8000002B2ED180681B4B98470023A3600135B2
:100B9000A56370BD002E0ED14068174B984763685F
:100BA000226C944663446360A26893421BD323681B
:100BB00063600020EBE7C0680F4B9847236C5B42F3
:100BC000E268D218E26021688A4203D2A2689446A1
:100BD0006344E360022E08D1002D08D0013D0020BF
:100BE000D5E70020D3E70020D1E70020CFE70020A1
:100BF000CDE7C046951A0000853A000070B582B076
:100C000001900A00846C002C05D0A16BE36B994223
:100C100003D372B6FEE772B6FEE7A16B8B4203D830
:100C20000026300002B070BD4523E55C6DB201A91D
:100C300020000A4B984706006B1C0AD1636A002B00
:100C4000EFD020002430064B98470028E9D0012639
:100C5000E7E701356DB24523E554E2E7710B00008B
:100C60006519000010B50C00026C002A0BD0C36897
:100C70009B18C36081688B4201D30368C360C1685D
:100C80002000014B984710BD853A000070B5050063
:100C9000214B98474523EC5C64B20AE06B6A002B59
:100CA00018D0280024301D4B984700280FD1013C54
:100CB00064B2002C0EDDAB6C002BEFD000212800BD
:100CC000174B98470028F2D0164B9847EFE7154B83
:100CD0009847ECE7FF224523EA54134B98470E4B05
:100CE00098474423EC5C64B201E0013C64B2002C00
:100CF0000BDD2B69002B08D028001030074B9847DC
:100D00000028F2D0074B9847EFE7FF224423EA542C
:100D1000054B984770BDC046610A00006519000088
:100D2000FD0B0000691A0000790A000070B504008C
:100D30000D00002823D0184B98472268E36B206CE5
:100D4000010059435118A1600021A1636260013B79
:100D50004343D318E360FF234422A3540132A35436
:100D6000002D11D12369002B05D0200010300B4B32
:100D70009847002805D10A4B9847012070BD72B6EC
:100D8000FEE7084B9847F6E720001030064DA847CD
:100D900020002430A847EEE7610A00006519000032
:100DA000790A0000490A0000F906000070B51D002C
:100DB000049C00290BD02260E06321640121200003
:100DC000044B98475023E5540023A36470BD24606E
:100DD000F2E7C0462D0D0000F0B583B006000F000D
:100DE0001500002801D172B6FEE7002902D00800E4
:100DF000704300E000205430074B9847041E07D092
:100E00000200543200902B0039003000034DA847F7
:100E1000200003B0F0BDC04625080000AD0D000065
:100E2000F0B585B004000F0001921E00002806D026
:100E3000002906D00125002D0AD172B6FEE772B650
:100E4000FEE7036C002B01D10125F4E70025F2E752
:100E5000022E03D0002D06D172B6FEE7E36B012B04
:100E6000F8D00025F6E7474B9847002803D1019BAF
:100E7000002B00D00025002D01D172B6FEE7002521
:100E800047E0A56B3200390020003F4B9847A36C28
:100E9000002B10D0022E01D1002D07D131002000EF
:100EA0003A4B9847002801D0394B9847394B98471F
:100EB000012005B0F0BD636A002B08D0200024306B
:100EC000354B98470028F1D0314B9847EEE7002882
:100ED000ECD02F4B9847E9E72E4B98470020E8E7E6
:100EE0002C4B984701A902A82C4B9847002841D1C8
:100EF00020002B4B9847002836D020001030019955
:100F0000284B98472000284B9847284B98470028A3
:100F100027D0274B9847A36BE26B9342B1D3022EA5
:100F2000AFD0019B002BD7D0002D03D102A8214BBD
:100F300098470135174B98471F4B98471C4B9847CC
:100F40004423E35C5BB2013302D100224423E25428
:100F50004523E35C5BB20133C2D100224523E25456
:100F6000BEE70B4B9847D4E720000F4B98470F4B39
:100F70009847CEE720000C4B98470C4B9847002031
:100F800097E7C046751A0000710B0000FD0B0000CA
:100F9000490A0000790A000065190000F9190000EB
:100FA000250B0000011900008D0C00004517000002
:100FB000610A0000E919000029160000F0B583B0AD
:100FC0000400009117001D00002807D0009B002B93
:100FD00006D00123002B0AD172B6FEE772B6FEE7F7
:100FE000036C002B01D10133F4E70023F2E7022D5B
:100FF00003D0002B06D172B6FEE7E26B012AF8D0CF
:101000000023F6E7234B98470190A36BE26B9342D2
:1010100001D3022D32D14523E65C76B22A00009935
:1010200020001D4B9847731C22D1A36C002B10D0BD
:1010300029002000194B9847002821D0002F21D0EB
:1010400001233B6001240198154B9847200003B011
:10105000F0BD636A002B17D020002430114B984755
:10106000002813D0002F13D001233B600124EAE7AE
:10107000731C5BB24522A3540124E4E70024E2E799
:101080000124E0E70124DEE70124DCE70124DAE7BC
:101090000124D8E7990A0000710B0000FD0B000045
:1010A000A10A000065190000F0B585B004000E002B
:1010B0000192002806D0002906D00125002D0AD172
:1010C00072B6FEE772B6FEE7036C002B01D1012574
:1010D000F4E70025F2E73E4B9847002803D1019B37
:1010E000002B00D00025002D01D172B6FEE70027AD
:1010F0002BE031002000374B9847013DA563236961
:10110000002B07D020001030334B9847002801D027
:10111000324B9847324B9847012005B0F0BD304B19
:1011200098470020F9E702A82E4B9847013716E0B0
:1011300000224423E2541DE000224523E2541EE035
:101140002000294B9847294B9847294B9847A56B76
:10115000002DCED1019B002BE1D0002FE3D0204BFE
:101160009847244B9847224B98474423E35C5BB253
:101170000133DDD04523E35C5BB20133DCD0184B97
:10118000984701A902A81C4B9847002813D12000BA
:101190001A4B98470028D3D0200024300199184BCF
:1011A00098472000104B9847104B98470028CCD107
:1011B0000A4B9847C9E720000B4B98470B4B9847C1
:1011C00020000E4B98470028BFD00020A5E7C0465E
:1011D000751A0000650C000065190000490A00003E
:1011E000790A0000E91900008D0C00004517000085
:1011F000610A000029160000F91900004D0B0000DB
:101200000119000010B50023072B0AD8DA00054C9D
:101210001259002A01D00133F6E7DB001951E31817
:10122000586010BDB030002070B504000D001600ED
:10123000114B98474423E35C5BB201330DD0452347
:10124000E35C5BB201330CD00C4B9847A36B002BD3
:101250000BD020000A4B984770BD00224423E25473
:10126000EDE700224523E254EEE72000243032006F
:101270002900044B9847ECE7610A0000790A000056
:101280008D0C00002D190000084B9B6A1B68002B79
:1012900006D0064B9A6AD268D2685268DA62704702
:1012A00001225242014BDA62F9E7C046B42900201C
:1012B00070B50500006B024CA0472800A04770BD28
:1012C000FD080000F0B5C64600B582B000900D00E4
:1012D00017000193089C0A9E9200A521306B224BB7
:1012E0009847224BFB189B00326B944663440722BD
:1012F00093439846002D32D00023042B09D8E918D7
:101300000878F218343210700A78002A01D00133BC
:10131000F3E700223823F254042C00D90424F462A9
:1013200074640025B564301D114FB8473000183083
:10133000B847366105231C1BB4617662F5644B33F4
:10134000F554019A009940460A4B98473060099B32
:10135000002B00D01E6002B004BC9046F0BD0022FD
:101360003423F254D8E7C046973A0000FFFFFF3F0E
:101370000F070000DD090000F0B5C64600B50024E7
:1013800008E0A3001B199A00104830308018104B59
:1013900098470134042CF4D90E4D14239846A844E0
:1013A00040460B4CA0472F0028373800A047074E77
:1013B00030001430A04728003C30A0473000A04740
:1013C0004346B3622F6504BC9046F0BDB4290020AB
:1013D000F9060000342A002010B504001F4B98477E
:1013E0001F4B5A6D01325A659B6D002B2BD01C4B45
:1013F000DB6D002B07D11A4B9B6DDB6AE26A9342CF
:1014000001D8174B9C6516490B6E01330B66E363DD
:10141000E26A4B6E9A4200D94A66211D93009B18DE
:101420009A001048303080180F4B98470F4B984760
:101430000B4BDB6D002B05D0094B9B6DDA6AE36A21
:101440009A4208D310BD064B9C655B6D012BDAD127
:10145000074B9847D7E7074B9847F3E7610A000027
:10146000342A0020B429002015070000790A000062
:1014700079130000490A000070B512E00B4B984741
:101480000B4CA36CDD68281D0A4B9847636D013B2C
:101490006365A36E013BA366074B98472800074B83
:1014A0009847034B9B6E002BE8D170BD610A00008A
:1014B000342A00205D070000790A0000B112000004
:1014C00010B5044B9847044B1B6B012BF9D9034B08
:1014D0009847F6E779140000B4290020490A000073
:1014E00070B504000D00154BDE6E986D0430144B82
:1014F0009847631C12D03419104B9B6D5C60A64258
:1015000015D8104DA86A0D4B996D04310E4B9847B4
:10151000EB6A9C4211D20B4BDC620EE0002DEAD04C
:10152000064B996D04310748084B984705E0034B7B
:10153000186D996D0431044B984770BD342A002012
:101540005D070000B42900202D07000015070000EA
:10155000F0B587B00490059114001F009000144B63
:101560009847061E1ED05420114B9847051E15D0D3
:101570000663002D18D00023039302950D9B019361
:101580000C9B00933B00220005990498094CA0474E
:101590002800094B9847012007B0F0BD3000074BE9
:1015A0009847E6E70025E4E701204042F4E7C0461B
:1015B00025080000C5120000D9130000FD08000036
:1015C00010B582B0114B743301930023009346226F
:1015D0000F491048104CA047012805D0012806D01B
:1015E000431C11D002B010BD0C4B9847F6E772B601
:1015F000012252420A4BDA62044B0232DA650022BF
:10160000DA66084B9847EDE772B6FEE7342A002009
:10161000003B0000C114000051150000DD1B00005C
:10162000B4290020FD090000024A136F013313673B
:101630007047C046342A0020014BD86E7047C04620
:10164000342A0020F8B5394B1B6F002B62D1374B81
:10165000DD6E0135DD66002D11D1354B9B6A1B68AF
:10166000002B01D072B6FEE7314A916A2F4B186DFC
:10167000906219659A6F01329A672E4B98472C4BEE
:10168000DB6A9D423CD20024284B9B6DDA6A9300B2
:101690009B189A00264B9B181B6B012B3FD90124EA
:1016A0003DE00124224B9B6A1B68002B2AD0204B73
:1016B0009B6ADB68DE6873689D4228D3371D38005B
:1016C0001D4B9847B36A002B03D0300018301A4BDB
:1016D0009847F26A154B5B6E9A4201D9134B5A66D2
:1016E00093009B189A001248303080183900134B31
:1016F0009847F26A0D4B9B6DDB6A9A42D1D2D1E7D3
:101700000024CFE701225242094BDA62BCE7084AC3
:10171000D362B9E7054AD36F0133D3670024084B7E
:101720001B68002B00D001242000F8BD342A0020C3
:10173000B4290020891200005D0700001507000091
:10174000B42A002070B5324B1B6F002B01D172B64A
:10175000FEE7304B98472E4B1A6F013A1A671B6F02
:10176000002B50D12A4B5B6D002B04D100242A4B57
:101770009847200070BD0024284B5B69002B23D0C4
:10178000264B1B6ADC6820001830254EB047251D0B
:101790002800B047E26A1E4B5B6E9A4201D91C4B8F
:1017A0005A6693009B189A001C4830308018290014
:1017B0001C4B9847164B9B6DDB6AE26A9A42DBD35F
:1017C0000122194B1A60D7E7002C01D0174B98471C
:1017D0000F4BDC6F002C0AD1134B1B68002B14D06D
:1017E000134B98470124C2E7013C002C07D0114B52
:1017F00098470028F8D001220B4B1A60F4E700222A
:10180000034BDA67E8E70024B1E70024AFE7C046FE
:10181000342A0020610A0000790A0000B42900205F
:101820005D07000015070000B42A0020891200009F
:10183000490A00004516000010B5041E0ED00A4BE0
:101840001B6F002B01D072B6FEE7084B98470021B2
:101850002000074B9847074B984700E000200028DE
:1018600001D1054B984710BD342A002029160000ED
:10187000E114000045170000490A000010B51D4B97
:101880001B6F002B10D100221B4B1A60194B5B6E93
:101890009A00D2189100194A5218126B002A09D1E5
:1018A000002B05D0013BF3E70122134B1A6010BD5A
:1018B00072B6FEE7114A9900CC18A0001018446BCC
:1018C000646844633032C9188800083012189442A2
:1018D0000AD09A00D2189100084A5218526BD16867
:1018E000044A91655366E2E760688900034A52182A
:1018F0005063EEE7342A0020B42A0020B4290020E7
:1019000010B50C00002801D172B6FEE7044B996DAA
:101910001831044B984701212000034B984710BD14
:10192000342A00202D070000E114000070B50C00DF
:10193000150000280DD0084B996D1831074B9847BA
:10194000002D01D00124644229002000044B984757
:1019500070BD72B6FEE7C046342A002015070000AD
:10196000E114000070B5C368DC68002C27D02500A6
:1019700018352800174B9847174B1B6F002B20D1A9
:10198000251D2800134B9847E26A134B5B6E9A4261
:1019900001D9114B5A6693009B189A000F483030BA
:1019A000801829000E4B9847E26A0B4B9B6DDB6A4F
:1019B0009A420CD901220B4B1A60012070BD72B6FD
:1019C000FEE7290005481430054B9847ECE7002056
:1019D000F4E7C0465D070000342A0020B429002047
:1019E00015070000B42A0020024B9A6F0260DB6EDC
:1019F00043607047342A0020F8B505000C00002829
:101A00001AD000291AD0144B9847144BD86E696825
:101A1000421A23685E1C1AD0104EB66F2F68B74268
:101A200001D0884215D29A420AD3002323600124B0
:101A30000B4B98472000F8BD72B6FEE772B6FEE782
:101A40009B1A23602800074B98470024F0E70024E6
:101A5000EEE70124ECE7C046610A0000342A0020CA
:101A6000790A0000E91900000122014B1A60704751
:101A7000B42A0020064BDB6D002B05D0044B1B6FF6
:101A8000002B03D1022070470120FCE70020FAE779
:101A9000342A002070B5041E2CD0194B9B6D98423F
:101AA00001D072B6FEE7836C002B01D172B6FEE75F
:101AB000013B8364C26A416C8A421DD0002B1DD158
:101AC000051D28000F4B9847636CE3620522D21A6C
:101AD000A2610B4A526E934201D9094A53669A0099
:101AE000D3189A000848303080182900074B9847CF
:101AF000012070BD0020FCE70020FAE70020F8E795
:101B0000342A00205D070000B429002015070000DA
:101B1000074B1A681368002B06D101330360002BB2
:101B200004D1D368186870470023F7E70020FAE76C
:101B3000B82A002010B54160006191420CD8D21A39
:101B400083699A4201D3012010E0011D094B5868B6
:101B5000094B9847002009E09A4201D2994206D2E7
:101B6000011D044B1868044B9847002010BD01204C
:101B7000FCE7C046B82A00202D070000F8B5104B3E
:101B80009847104B9B68002B02D00F4B9847F8BD2D
:101B90000C4C26000C3630000C4FB8472500203581
:101BA0002800B8472660656000220C210520084BFC
:101BB0009847A0600028E8D00649074B9847E4E71B
:101BC000610A0000B82A0020790A0000F906000026
:101BD000D90D0000403B00000512000010B582B096
:101BE0000C4B98470C4B9B68002B0ED00A4B3433A0
:101BF0000193022300930023502208490848094C0E
:101C0000A047002803D172B6FEE70020F9E702B032
:101C100010BDC0467D1B0000B82A0020483B0000D4
:101C2000211F00005115000030B585B004001D00D3
:101C3000002814D0134B9868002821D001910292FB
:101C40000394052915DC104B9847022809D00D4B49
:101C500098680023002201A90C4CA0470EE072B640
:101C6000FEE7084B98680023089A01A9074CA04793
:101C700004E000232A0001A9054CA04705B030BDAF
:101C80000020FBE7B82A0020751A0000210E000092
:101C9000BD0F000070B582B0174B1B681A68002A90
:101CA00024D0DB681E68DC68251D2800134B98478C
:101CB0002000236A98472823E35C5B07ECD5A369DF
:101CC000F3189E4207D2636024610B4B1868290009
:101CD0000B4B9847E0E700230093320000212000DF
:101CE000084CA0470028D7D172B6FEE7024A5168D7
:101CF0001160536002B070BDB82A00205D0700007B
:101D00002D070000291C000070B50500084B9847FE
:101D10000400084B9B6B984205D300232B60054BB6
:101D20009C63200070BD044B984701232B60F6E7AD
:101D300039160000B82A0020951C000070B582B04A
:101D400005000E00134B1B68DB68DC68201D124B7E
:101D500098472823E35C5A0708D40122934327328B
:101D6000A354236A2000984702B070BDA369591993
:101D70002B0032002000094EB0470028F1D000238C
:101D800000932A0000212000054DA8470028E8D133
:101D900072B6FEE7B82A00205D070000351B000080
:101DA000291C000070B582B004000D00174B984745
:101DB00001A8174B98470600019B002B23D1002D4B
:101DC00001D1A04213D2002D05D0124B5B681B68D5
:101DD000002B13D10125A11B0E4B98682A000E4B36
:101DE00098470E4B984700280AD002B070BD0B4BA5
:101DF0009847310020000A4B9847F6E70025EAE7AC
:101E0000084B9847F1E7054B9847EEE72916000085
:101E1000091D0000B82A0020291200004517000003
:101E20003D1D0000490A000030B587B0344B98686A
:101E3000002203A9334B984700285FD0039B002B57
:101E4000F4DB059C6369002B02D0201D2E4B9847C4
:101E500002A82E4B9847039B092BE7D89B002C4ADE
:101E6000D3589F462822A35C01210B43A354049B13
:101E7000A269944663441900049B02002000254D8A
:101E8000A8470028D2D02000236A98472823E35C83
:101E90005B07CBD5049BA1698C4663441A000023E1
:101EA0000093002120001C4CA0470028BED172B630
:101EB000FEE72822A35C01218B43A354B6E7282226
:101EC000A35C01210B43A3540499A161002906D00E
:101ED00041180300020020000E4CA047A6E772B68E
:101EE000FEE72823E35C9A0704D5012293432732B7
:101EF000A3549BE72000094B984797E707B030BDF4
:101F0000B82A0020A91000005D070000091D00008C
:101F1000183B0000351B0000291C0000FD080000D4
:101F200000B583B001A8044B98470199034B98472B
:101F3000034B9847F6E7C046111B0000A51D0000A3
:101F4000291E0000EFF31083036072B6BFF35F8FAA
:101F50007047BFF35F8F036883F31088704710B535
:101F6000C369002B00D0984710BD10B5036A002B41
:101F700000D0984710BD10B5436A002B00D0984799
:101F800010BD000070B504000D00002815D0002918
:101F900011D0012041220A490A4B9847290020000C
:101FA000094B9847002805D1084B6360084BA36094
:101FB000084BE36070BD0020ECE70020EAE7C04674
:101FC000503B00005D240000C52400005F1F00009E
:101FD0006B1F0000771F000010B50400431E9841DE
:101FE000C0B25C220349044B98472000034B98473A
:101FF00010BDC046503B00005D240000AD2600002F
:1020000070B504000D0000280DD0002909D0012072
:102010006E220649064B984729002000054B984739
:1020200070BD0020F4E70020F2E7C046503B0000FE
:102030005D240000BD26000070B504000D000028DE
:102040000DD0002909D0012077220649064B984778
:1020500029002000054B984770BD0020F4E70020C0
:10206000F2E7C046503B00005D24000099270000C5
:1020700070B506000D001400431E9841C0B28122C5
:102080000C490D4B9847012D10D0002D04D0022D86
:102090000ED00D20404208E03462621E9441E2B24C
:1020A00029003000054B9847002070BDF461F4E72B
:1020B0007462F2E7503B00005D2400000D2900002F
:1020C000F8B504000D0016001F00431E9841C0B271
:1020D000B8220549054B98473B00320029002000F3
:1020E000034CA047F8BDC046503B00005D240000F3
:1020F0006129000010B54369002B00D0984710BD3E
:1021000010B58369002B00D0984710BD70B504004E
:102110000D00002813D000290FD0012038220949D2
:10212000094B984729002000084B9847002803D105
:10213000074B2360074B636070BD0020EEE7002073
:10214000ECE7C0466C3B00005D240000112C000051
:10215000F52000000121000070B504000D000028EA
:1021600017D0002913D0012040220B490B4B984770
:102170006560201D29000A4B9847002806DB094BA3
:10218000A382094B2361094BE360002070BD00204E
:10219000EAE70020E8E7C046843B00005D24000039
:1021A0000D2D00000080FFFF35220000F921000006
:1021B00030B587B004000D00002815D0002911D0DB
:1021C0000120B32209490A4B98472B6803936B6897
:1021D0000493AB6801930593201D03A9054B984711
:1021E00007B030BD0020ECE70020EAE7843B0000A8
:1021F0005D240000092F000070B584B004000E00BB
:102200001500431E9841C0B2A3220749074B9847C7
:1022100020000C38002302930196039501A9044B7A
:10222000984704B070BDC046843B00005D240000A8
:10223000B121000070B584B004000E001500431EEB
:102240009841C0B287220749074B984720000C38B5
:10225000029600230193039501A9044B984704B00B
:1022600070BDC046843B00005D240000B121000029
:10227000F8B50668002E02D0330000250CE0104BA4
:10228000984718E09F68BC466444A41A01348F68DC
:10229000BC420BD21D001B68002B07D05C68944227
:1022A000F0D8A41A9F68BC466444F0E7B34203D058
:1022B0002800044B9847F8BD014B9847FBE7C04600
:1022C0007D240000A9240000F8B5050044690369D5
:1022D0005E1C0661037EDB0702D4037E9B070AD5E2
:1022E0002B7E02221343DBB22B76F8BD6F69E368C5
:1022F000200098473C00002CF7D06368F31AA268CE
:102300009342F2D32F0014373800064B9847237CB2
:10231000012BEBD16660320021003800024B984758
:10232000E4E7C046B12400007122000070B504004B
:102330000D00002812D000290ED001203B220849B0
:10234000084B984729002000074B9847002323613A
:10235000064B2360002070BD0020EFE70020EDE772
:10236000A03B00005D240000B9300000C92200003D
:1023700010B50400431E9841C0B253220749084BD0
:1023800098472000074B9847002804D12000064BAF
:102390009847002010BD11204042FBE7A03B000001
:1023A0005D240000833200007132000070B582B0FD
:1023B00004000D00002826D0002922D001207A2216
:1023C0001F49204B9847237E01221343DBB223761B
:1023D00026001436290030001B4B9847002814D1E2
:1023E00023696B60226929003000184B9847237ECF
:1023F000012293432376237E9B0712D4002002B050
:1024000070BD0020DBE70020D9E7237E0122934343
:1024100023767E320A4900200A4B98471220404218
:10242000EDE701A80A4B9847237E022293432376C7
:102430002000084B984701A8074B98470020DEE78B
:10244000A03B00005D240000652400007122000014
:10245000451F000099320000531F0000002800D1E2
:1024600000BE70470368002B03D08B4203D01B686B
:10247000F9E7002070470120FCE7000070B5040078
:102480000D00064B984701235840C0B23922044939
:10249000044B984723682B60256070BD65240000BD
:1024A000B83B00005D24000003680B6001607047CA
:1024B0000368002B03D01A680260180070470020E0
:1024C000FCE70000F0B501608B69012213438B61CA
:1024D00003689A69D207FBD59A69022422439A615C
:1024E000644B994212D0644B994269D00268936957
:1024F00002218B4393610268936901398B43936195
:1025000003689B69DB07FBD40020F0BD5B4B1A001E
:1025100001C25B4C84610468A569A561046800265A
:10252000A6600468574DE5610468574DE560574C57
:102530002404240C564D2C43A02507687C51993D5A
:10254000BC2407683D510C3405682E51514C2404BD
:10255000240C8025AD042C43C02506687451120458
:10256000120C8024A4022243303506687251703D5B
:102570002822066872511A0014321204120C2243E7
:102580008424066832511C331B041B0CA022120346
:10259000134388220468A3503F4A90230468E25002
:1025A0003E4B802212025A51BFF34F8FBFF36F8F01
:1025B000C02464001A511A6003680122DA6592E7A8
:1025C0002E4BD8662E4A143282610268916991615D
:1025D00002680021916002682A4CD46102682A4C8A
:1025E000D4602F4A1204120C294C2243A0240568FF
:1025F0002A51BC220468A1500C320468A150294A17
:102600001204120C802189040A43C021046862501C
:1026100070331B041B0C8022920213433031046878
:1026200063508024282301680B511F4B1904090CA7
:102630000A43842105686A5008331B041B0CA0223E
:1026400012031343882201688B50134A90230168B8
:10265000CA50124B802252021A51BFF34F8FBFF360
:102660006F8FC02149005A501A6003680122DA6551
:102670003CE7C046001C004200200042F42A002033
:10268000040000200302000231020000F0300020AC
:102690000000108090360020FFFFFF1F00E100E0E7
:1026A0009035002070350020742B0020026893695B
:1026B00001218B439361002070470000F0B5CE46A6
:1026C000474680B585B080460268A423D3585B0690
:1026D0004FD0A423D458240A653B1C40A146284B64
:1026E0009A4231D000232748824233D0002B43D076
:1026F0001A68520033D400224A731A68D200520D6D
:102700000A601A68920031D46A461F486E46B0C803
:10271000B0C60068306058680003000F125C0A738E
:10272000886808331900194B984743461968A8224E
:102730008B583F2083434C461C438C50002005B0EF
:102740000CBC90469946F0BDE0004844C3001048D8
:102750001B18C8E74B461B010E4A9B18C6E701220F
:102760004A731A68D200D2080A60CAE701220A71C5
:10277000CAE70A204042E2E71C204042DFE7C046A9
:10278000001C004200200042D83B0000853A0000B7
:10279000F03000209035002070B505000368C42299
:1027A0009A58920200D59AE0C4229858000CA53A93
:1027B00002404E4883423DD000204D4CA3423DD0C4
:1027C000002800D18EE04B7B012B3BD00B689B0493
:1027D00003600A7B082A3DD844680F2313401B047A
:1027E000444A1440234343602B689B691B0A01241D
:1027F000426823405B05404E3240134343602B68E0
:102800009B695B0A426823401B053C4E32401343E0
:10281000436008308B680A7B1900394B9847296858
:10282000C423CA58120CA53B13409C40D023CC5063
:10283000002070BD1401334EA019BEE712013248CA
:102840001018BDE70B68036002688023DB051343A3
:102850000360BEE70C2A07D84268264B1A40902333
:102860001B0313434360BFE7102A07D84268214B7C
:102870001A40A0231B0313434360B5E7142A07D86B
:1028800042681C4B1A40B0231B0313434360ABE761
:10289000182A07D84268174B1A40C0231B0313435A
:1028A0004360A1E7202A07D84268124B1A40D02380
:1028B0001B031343436097E7302A07D842680D4B48
:1028C0001A40E0231B03134343608DE7402A00D9DD
:1028D0008AE74268F0231B031343436084E71C200C
:1028E0004042A6E71C204042A3E7C046001C00422D
:1028F00000200042FFFFF0FFFFFFDFFFFFFFEFFFC1
:10290000853A0000903600207035002010B500296F
:102910000BD0012910D002290DD101684B6D0D4A51
:102920001A400D4B13434B6505E001684B6D0120C8
:1029300083431A434A6510BD01684B6D074C234021
:1029400052021A434A65026801214942E023D150EC
:10295000F1E7C0460102000008008003FFFDFFFF11
:1029600030B584698800E568AC4660442469C900D4
:102970006118002A1DD1002B19D05A6802601B680B
:1029800002685B055B0917490A401343036003684B
:102990009B009B08802212061A4302600268124BB9
:1029A0001A4080231B0513430360002030BD0360E1
:1029B000FBE7012AF9D1002B12D01A680A600A68D5
:1029C000D200D20880208005104308605B684B600D
:1029D0004B689B009B08802212061A434A60E4E77A
:1029E0000B60E2E7FFFF00F8FFFFFFC770B51A4B6F
:1029F0001D682B681C6DE30714D4A30516D4A3012E
:102A000018D4E3011BD4230207D5EB682A68526C63
:102A1000920619D5022128009847230716D42B685F
:102A20001C6570BD2800AB689847E6E728006B6816
:102A30009847E4E703212800EB689847E1E7002185
:102A40002800EB689847DEE70121E4E7042128002D
:102A5000EB689847E3E7C046F42A002070B51A4BAC
:102A6000DD6E2B681C6DE30714D4A30516D4A301F7
:102A700018D4E3011BD4230207D5EB682A68526CF3
:102A8000920619D5022128009847230716D42B68EF
:102A90001C6570BD2800AB689847E6E728006B68A6
:102AA0009847E4E703212800EB689847E1E7002115
:102AB0002800EB689847DEE70121E4E704212800BD
:102AC000EB689847E3E7C046F42A002043B2002BA6
:102AD00007DB1F2318401E3B834080225200014920
:102AE0008B50704700E100E010B5084B5A685A60FF
:102AF000074B9847074B9847074B9847074B984712
:102B0000FF20074B9847074B984710BD00400041F6
:102B1000A12C0000BD2C0000052C0000F92C0000A9
:102B2000E12B0000292B00009022D205137802210E
:102B30008B431370704710B582B0EFF3108301938D
:102B400072B69023DB051A78012422431A7098602C
:102B5000D9609023DB051B79DB07FAD49023DB05D2
:102B60001869019B83F3108802B010BD10B582B0C4
:102B7000EFF31083019372B69023DB051A780124DA
:102B8000A2431A709860D9609023DB051B79DB079C
:102B9000FAD49023DB051869019B83F3108802B0F7
:102BA00010BD000010B582B0EFF31083019372B630
:102BB0009023DB051A780124A2431A709860D9602B
:102BC0009023DB051B79DB07FAD4044B186859689E
:102BD000019B83F3108802B010BDC046100000486E
:102BE000C30707D5044A054B1A62044B5A68044BC5
:102BF0001A42FAD17047C04606010100001C00408D
:102C0000FD0700000122014B1A71704700080040C7
:102C100070B505000C0000281CD0104B99421BD049
:102C2000002046220E490F4B98472C6162689E2374
:102C3000134063600C4B1D600C4B402280215A50A6
:102C4000BFF34F8FBFF36F8F0131FF315A501A60BE
:102C5000002070BD0020E4E70120E2E700400041D1
:102C6000E83B00005D240000CC2B002000E100E0E8
:102C700010B50A4B186803691A7DD20704D503689A
:102C8000002B00D0984710BD1A7D9207FBD5022279
:102C90001A754368002BF6D09847F4E7CC2B002038
:102CA000054AD3691B0A1B02F82149010B40D36175
:102CB000012313617047C046001400400D4B0222EF
:102CC0001A7509325A750B4B9B695B07FBD4094B8C
:102CD0009B695B07FBD40722064B9A75054BDB68A3
:102CE000DB06FBD5034A137D802149420B43DBB24F
:102CF000137570470010004070470000024B9C465F
:102D00006044800AC0B2704700FCFFBD70B5060089
:102D10000C000800714B98470023002B00D184E081
:102D20000025002E00D18DE0002C00D188E001208C
:102D30006B4A6C496C4B9847002D00D1CBE0E3699E
:102D4000DB0721D42A786B781B021343AA7812047C
:102D50001343EA7812061A431C231A40E3699B07BF
:102D6000FCD123689B0709D5236802218B4323608C
:102D7000E3699B07FCD1E3699B07FCD40123134360
:102D80002360E3699B07FCD1E369DB07FCD4346073
:102D90002B786A7812021A43AB781B041A43EB783B
:102DA0001B0613431C221340082B4DD0002C00D1CE
:102DB0008DE0002D00D188E001204C4A49494A4B62
:102DC00098472B786A7812021A43AB781B041A438F
:102DD000EB781B061343464A13402360E3699B07C5
:102DE000FCD12B796A7912021A43AB791B041A437E
:102DF000EB791B0613433F4A134080229202134390
:102E00006360E3695B07FCD12B7B23736A7B302310
:102E1000E2542B795B075CD101233371AA7BEB7BF6
:102E20001B021343F380002070BD012802D0013340
:102E3000DBB272E71D01EA182F4D3C35AD1870E783
:102E4000002075E7002073E7002C3CD0002D38D01F
:102E500001202A4A2349244B98472B786A7812028A
:102E60001A43AB781B041A43EB781B061343204A22
:102E700013402360E3699B07FCD12B796A79120226
:102E80001A43AB791B041A43EB791B0613431C4A04
:102E900013401C4A13436360E3695B07FCD12B7A40
:102EA0006A7A12021A43AB7A1B041A43EB7A1B06A6
:102EB000134363626A7B3023E254E369002BFCD145
:102EC000A7E70020C5E70020C3E7002075E7002042
:102ED00073E70223A1E70D204042A5E7FD2C000087
:102EE00025090000583C00005D240000EF080000A8
:102EF000FCFEFFFFBF1DFDFF083C000003090000B2
:102F0000BFDDFDFF40020200F0B5CE46474680B56A
:102F100089B081460D0004680B6803934B680493E5
:102F20000023059306930679002814D0002C10D0B6
:102F30000120374A3749384B9847E3695B0764D12A
:102F4000E3699B07FCD123689B0720D414204042EF
:102F500056E00020EDE70020EBE700222DE0487866
:102F6000000247460743B8460231039101320592F9
:102F70004246A2625BB2002B35DB002000283ADB20
:102F80000598AB68984202D3069A934233D9237EC0
:102F9000DBB25A07E1D5A16A049A002A08D0501C76
:102FA00004901170012E03D9901C0490090A5170ED
:102FB000069A0192013206920122002ADAD106997C
:102FC000059A9142D6D34946C888D907D2D50399E4
:102FD000002906D0481C039008788046012EBED8F0
:102FE000C4E78046C2E701235B42638381332376D3
:102FF00013204042C2E7237E9B07FCD003232376A5
:1030000009B00CBC90469946F0BD04204042F7E759
:10301000850A0000583C00005D24000010B5C3681C
:103020009A7AD20700D410BD01229A720368984799
:10303000F9E70000064B984203D0064B984203D0B4
:103040007047054B1960F8E7034B5960F8E7C04635
:103050000030004200340042D02B002010B5114B4C
:10306000984211D0104B9C466044800AC2B20020A6
:1030700001280DD883001B1899000C4BCB5C9342A0
:1030800004D00130C0B2F3E70422F0E740B207E019
:10309000A322520006490020064B984701204042D7
:1030A00010BDC0460040004200D0FFBD743C00008F
:1030B0009C3C00005D24000070B506000C00080078
:1030C000654B98470500F4608F2264490120644BEA
:1030D00098472369DB0714D423699B07FCD1236835
:1030E0009B0709D5236802229343236023699B072A
:1030F000FCD123699B07FCD40123236023699B0730
:10310000FCD12369DB07FCD4AB005B199A00554B5B
:103110009B185B68236023699B07FCD1AA005219A6
:103120009100504B5B189A7AE2731A89E28001226F
:1031300022735A680C231340082B56D0002B68D1F9
:10314000AB005B199A00474B9B189B89A3832369AB
:10315000C0221A42FBD1AB005B199A00414B9B186D
:103160001B8AE3832369C0221A42FBD101236372C5
:10317000310020003C4B9847AB005B199A00394B5B
:103180009B185B785BB2002B0BDB1F2213401E3AAF
:103190009A401300802235498B50BFF34F8FBFF305
:1031A0006F8FAB005B199A002E4B9B185B785BB25C
:1031B000002B08DB1F2213401E3A9A401300C02246
:1031C00052002A498B50AB005D19AA00254B9B1871
:1031D0005B785BB2002B06DB1F2213401E3A9A403D
:1031E0001300224A1360002070BD1E4B5B18DB6881
:1031F000E3612369C0221A42FBD1AB005B199A003C
:10320000184B9B181B6923622369C0221A42FBD109
:10321000ACE7042BAAD1AB005B199A00114B9B18A9
:103220001B7B23772369C0221A42FBD1AB005B19B9
:103230009A000C4B9B181B7C63772369C0221A42AF
:10324000FBD1AB005B199A00064B9B18DB7AE37647
:1032500023699B06FCD489E75D3000009C3C00009C
:103260005D240000743C00003530000000E100E007
:10327000C268136802210B43136013699B07FCD1DA
:103280007047C26813699B07FCD113685B08012073
:10329000184070470020704710B5C068084B984729
:1032A00004001222FF3207490120074B9847A00073
:1032B00000198200054B9B185878054B984710BDA4
:1032C0005D3000009C3C00005D240000743C000068
:1032D000CD2A000010B5024B1868024B984710BD6C
:1032E000D02B00201D30000010B5024B5868024B57
:1032F000984710BDD02B00201D30000010B5041ED3
:1033000027D00368002B22D0012050221549164BEC
:10331000984723689A680E211142FBD11A78D20986
:1033200019D19A680E211142FBD11A78920715D44F
:103330001A780A398A431A709A680E211142FBD111
:103340002268537801318B435370002010BD002058
:10335000DBE70020D9E711204042F7E71120404287
:10336000F4E7C046B03C00005D24000010B5044BFB
:103370009847044B9847044B9847044B9847FEE7FF
:103380009501000085060000C5050000ED0600005F
:1033900010B5094B1A6801321A608020000294238C
:1033A000C021C905C85005490020054B9847012098
:1033B000044B9847EDE7C046D82B0020C83C0000DE
:1033C0001D3A00003918000010B582B0094B98472B
:1033D000002301930133009300238022064907480C
:1033E000074CA047012800D0FEE7064B984702B0E3
:1033F00010BDC046610A0000DC3C000091330000B3
:1034000051150000790A00000369C268934202D98D
:10341000981A013870478068801A18180138F9E73F
:10342000F0B583B0050001911600C7688368DC1B06
:1034300094420ED84368D81922000199084FB84722
:10344000361B019B191932006868B847EE6003B05B
:10345000F0BD4368D819024B9847BE19EE60F6E7F5
:10346000853A0000F8B5CE46474680B50500894646
:103470001600C4680023984615E01B1BAA689446F2
:103480006344013B14E06B6818193A004946114B3C
:103490009847B844B944F61BE419AB689C4211D074
:1034A000EC60002E10D02B699C42E6D21B1B013B26
:1034B000AA68121B934200D9130037009E42E2D93A
:1034C0001F00E0E70024EBE740460CBC904699461D
:1034D000F8BDC046853A000010B5144CA822002162
:1034E0002000134B9847032323616361114AA261B3
:1034F000114BE3618023DB0023620023A36263623C
:10350000E36222660D4A62661022A2662367E366C2
:10351000636707E00F21C91A094A5218117C034A50
:10352000D15401330F2BF5D910BDC046B036002061
:10353000973A0000043D0000DC2B0020DC2F002027
:10354000E03C0000F8B50F001600421C53009B1829
:10355000DD00174BED1842001018C2009B18DC6A02
:10356000012C11D0002C03D0022C1BD0002417E01A
:103570002800104B9847B04212D33200390028007F
:103580000D4B984734000BE028000A4B9847340055
:10359000864200D90400220039002800064B9847D3
:1035A0002000F8BD32002800044B98470400F7E7DC
:1035B000B0360020093400002134000065340000DA
:1035C000F8B505000E001700094B1B78002B0CD036
:1035D000EFF31084012181F310883A0031002800B4
:1035E000044B984784F31088F8BD034B9847EFE7E6
:1035F000B036002045350000D934000010B5040075
:103600008268531C4068834205D820688154A360B7
:10361000E3680133E360A26863689A4200D010BD9A
:1036200021682069054B9847A368984203D001237D
:103630005B42E360F3E70023A360F0E7C1350000DD
:10364000F0B5DE464F464646C0B582B00600019151
:1036500015001C000A9B984608000123994605E0C6
:103660002900384B984701239C46E144A842F7D2F1
:10367000A14500D2A14601230B9A1A4093461AD1C4
:103680004346002B17D00B9B9B0703D5002C17D06C
:10369000202700E020274346002B0CD0C8450AD93C
:1036A00001235B429C46E04439003000264B98479A
:1036B000F368002BEFDAF368002B3CDB012708E00E
:1036C0003027E8E7390001981E4B9847854204D817
:1036D0006F43012CF6D9013CFAE739000198194BE8
:1036E0009847040039000198184B98470191184BEE
:1036F000195D3000144B9847F368002B05DB290057
:103700003800104B9847071EE7D15B46002B12D0BC
:103710004346002B0FD04346002B0CD0C8450AD996
:1037200001235B429C46E04420213000064B984731
:10373000F368002BEFDA02B01CBC90469946A34612
:10374000F0BDC0466D2B0000FD350000A52B00002C
:10375000103D0000F0B5D6464F4680B583B0060058
:10376000894615009A460A9FCA17881850400124B6
:1037700003E02900344B98470134A842F9DA544554
:1037800000D25446002F06D04B46002B02DB0B9B89
:103790005B0700D5013F0B9B9B0702D55346002BCF
:1037A00004D00B9BDB0701D4002F21D1F368002B41
:1037B00019DB4B46002B28DB0B9B5B072CD4F368F3
:1037C000002B10DB03230B9A1340022B29D0F36844
:1037D000002B08DB0B9B0193009753462A004946B8
:1037E00030001A4CA04703B00CBC91469A46F0BD7D
:1037F000002FDBD0A742D9D9013F20213000144B44
:103800009847F368002BF3DAD0E75B4299462D2105
:1038100030000F4B9847D2E72B2130000C4B9847D4
:10382000CDE75346002BD2D1002FD0D0002FCED0E1
:10383000A742CCD9013F30213000054B9847F368AF
:10384000002BF3DAC3E7C046372B000041360000F7
:10385000FD350000F0B5C64600B59AB080460C00B4
:10386000150005AB15934023169300231793199069
:1038700018938DE0002001220AE0232B18D10823A1
:103880001843013402E0012318430134002A11D007
:1038900023782B2B08D0F0D92D2BF4D0302B07D147
:1038A000022318430134F1E7042318430134EDE700
:1038B0000022EBE7277839003039C9B2092907D847
:1038C000013491008A185300DB19303B1A00F1E7EC
:1038D0002E2F02D00023217811E001340023267816
:1038E0003700303FFFB2092FF5D801349F00FB1895
:1038F000590089190B00303BF1E7013421786C291C
:10390000FBD06829F9D064294DD00FD9732955D03F
:1039100017D9752924D129680F1D2F6009680190D6
:1039200000920A2215A8394FB8472DE0582919D01E
:10393000632922D0252927D1252115A8344B984762
:1039400022E0702920D12B681A1D2A6019680023F3
:10395000019308330093102215A82C4FB84713E0A9
:10396000782911D129680F1D2F60096801900092F4
:10397000102215A8254FB84706E02B681A1D2A60AB
:10398000197815A8224B98470134189B002B24DB8B
:1039900021780134002920D0252900D16AE715A813
:1039A0001B4B9847F1E729680F1D2F6009680190AC
:1039B00000920A2215A8174FB847E5E72B681A1D91
:1039C0002A601F68397801370029DDD015A8104B0F
:1039D0009847189B002BF5DAD6E7189B002B0BDDD8
:1039E000179A002A0DD1179B0293189B0393029BF1
:1039F000039A94466344189318981AB004BC9046EE
:103A0000F0BD05A94046044B9847ECE7413600005D
:103A1000FD35000055370000C13500000EB400B57B
:103A200082B003AB02CB019301AA034B984702B0CB
:103A300008BC03B01847C0465538000070B50026D2
:103A40000C4D0D4C641BA410A64209D1002600F0B9
:103A500067F90A4D0A4C641BA410A64205D170BD3B
:103A6000B300EB5898470136EEE7B300EB589847A0
:103A70000136F2E72C3D00002C3D00002C3D0000FB
:103A8000303D0000002310B59A4200D110BDCC5C3F
:103A9000C4540133F8E703008218934200D1704701
:103AA00019700133F9E70000753332636F6D6D5F94
:103AB000636E74203D202564200D0A00636F6D6DD8
:103AC000000000002E2E2F68616C2F696E636C75EC
:103AD00064652F68616C5F7764742E680000000075
:103AE00043414E312064617461203D20253032789D
:103AF000200D0A006C656E203D202564200D0A0013
:103B000049444C4500000000092563092575092535
:103B1000750925750D0A0000641E0000641E000072
:103B2000641E0000B21E0000BE1E0000E21E000067
:103B3000641E0000641E0000B21E0000BE1E0000D5
:103B4000546D725100000000546D72205376630072
:103B50002E2E2F68616C2F7372632F68616C5F6308
:103B6000616E5F6173796E632E6300002E2E2F6885
:103B7000616C2F7372632F68616C5F666C61736830
:103B80002E6300002E2E2F68616C2F7372632F68D6
:103B9000616C5F7370695F6D5F73796E632E630034
:103BA0002E2E2F68616C2F7372632F68616C5F74A7
:103BB000696D65722E6300002E2E2F68616C2F7563
:103BC00074696C732F7372632F7574696C735F6C97
:103BD0006973742E630000000001020304050607E8
:103BE000080C1014182030402E2E2F68706C2F6E89
:103BF000766D6374726C2F68706C5F6E766D637433
:103C0000726C2E6300000000000000000000000045
:103C100000000000000000000000000000000000A4
:103C20000000000000000000000000000000000094
:103C30000000000000000000000000000000000084
:103C4000000000000C000100000002000000000065
:103C50002700FF01010000002E2E2F68706C2F73CB
:103C60006572636F6D2F68706C5F736572636F6DE3
:103C70002E63000000140000080300000000000094
:103C8000F40100000000000001150000080300001E
:103C900000000000F4010000000000002E2E2F683C
:103CA000706C2F74632F68706C5F74632E630000F8
:103CB0002E2E2F68706C2F7764742F68706C5F776E
:103CC00064742E63000000007533326166655F63C3
:103CD0006E74203D202564200D0A000041464500F9
:103CE0003031323334353637383941424344454632
:103CF00000000000000054545220524547474553ED
:103D0000000000005465726D696E616C0000000077
:103D10003031323334353637383941424344454601
:103D2000F8B5C046F8BC08BC9E467047E5000000E8
:103D3000F8B5C046F8BC08BC9E467047BD00000000
:103D4000AAAAAAAAF030002090360020F82A002063
:103D5000082B0020102B002090350020703500200B
:0C3D6000642B0020742B00207C2B002022
:00000001FF
