:10000000702D00202D0100002901000029010000B1
:1000100000000000000000000000000000000000E0
:1000200000000000000000000000000029010000A6
:1000300000000000000000005106000095060000CE
:100040002901000029010000290100002901000008
:100050002901000029010000791400002901000095
:1000600029010000290100002901000029010000E8
:1000700029010000290100002901000011120000DF
:10008000811200002901000029010000290100005F
:100090007D1A0000911A00002901000029010000CA
:1000A00029010000290100002901000029010000A8
:1000B00029010000290100002901000010B5064CAB
:1000C0002378002B07D1054B002B02D0044800E019
:1000D00000BF0123237010BD280000200000000095
:1000E000E0230000084B10B5002B03D00749084857
:1000F00000E000BF07480368002B00D110BD064B8D
:10010000002BFBD09847F9E7000000002C000020EE
:10011000E0230000E02300000000000010B5014BC8
:10012000984710BD8D040000FEE7000010B5104A8E
:10013000104B9A4209D00F4B0D4A03E01168196029
:10014000043304320C498B42F8D30C4B02E00022FA
:100150001A6004330A4A9342F9D30A4AFF210A4B30
:100160008B439360094B9847094B9847FEE7C0467D
:10017000E0230000000000202800002028000020CC
:100180006C0D002000ED00E0000000007521000073
:10019000151B000010B5094AD16980235B010B4390
:1001A000D3614021F823064AD150064B98470200FC
:1001B00005490648064B984710BDC0460008004058
:1001C000001C0040791A000000300042E8060020C0
:1001D0003D0C000010B5094AD16980239B010B43F7
:1001E000D3614021F823064AD150064B98470200BC
:1001F00005490648064B984710BDC0460008004018
:10020000001C0040791A000000340042B4060020AF
:100210003D0C0000024A136920210B431361704713
:100220000008004010B5034B984703490348044BAE
:10023000984710BD15020000004000416C060020E8
:100240001D0A0000F0B5C64600B5C024E4058023B1
:100250005B0263608223DB05234A9A62234A9A6227
:1002600050215A5C042082435A545A5C0126B243FE
:1002700001252A43D2B25A5418395A5C0B308446AD
:10028000824302273A43D2B25A548022D202626198
:10029000A2608022D20590469A6215499962522145
:1002A000585CB0432843C0B258543920195C6246A8
:1002B00091433943C9B21954802109036161A16096
:1002C00042469A620B4A9A6253215A5CB2432A43CD
:1002D000D2B25A541A5C44390A4020210A43D2B29D
:1002E0001A5404BC9046F0BD00000240010002C058
:1002F000040000C0080000C0064B4021D0229950E5
:100300000331083A9950044AD3693F390B43D3610A
:100310007047C046001C00400008004010B5044B68
:10032000984704490448054B9847054B984710BD2A
:10033000F902000000080042D0060020690A00000F
:1003400045020000034A516980235B000B4353615F
:100350007047C0460008004010B5064B9847482239
:1003600005490120054B98470548064B0360064B9D
:10037000984710BD45030000E0210000810C0000FB
:10038000B006002000200040A51A000030B58223EE
:10039000DB055922995C0125A94301242143C9B2F7
:1003A00099543C20195C4A3A114060221143C9B269
:1003B000195458215A5CAA432243D2B25A541A5CA7
:1003C00049398A4306210A43D2B21A5430BD00008B
:1003D00010B5084A116980235B000B43136140216B
:1003E000E823054AD15005490548064B9847064B76
:1003F000984710BD00080040001C0040001C00424F
:1004000088060020950800008D03000030B5822387
:10041000DB05CB22995C0125A94301242143C9B204
:100420009954B520195CBC3A114060221143C9B2FD
:100430001954CA215A5CAA432243D2B25A541A5CB4
:10044000BB398A4306210A43D2B21A5430BD000098
:1004500010B5084A116980239B000B4313614021AA
:10046000EC23054AD15005490548064B9847064BF1
:10047000984710BD00080040001C004000200042CA
:1004800044060020950800000D04000010B5134B31
:100490009847C023DB058022120298215A50103958
:1004A0005A508223DB05A8220D499950C021090624
:1004B0009950CF215A5C012082435A54094B9847E6
:1004C000094B9847094B9847094B9847094B984760
:1004D000094B9847094B984710BDC046F1120000E0
:1004E00000800040250200001D030000950100006F
:1004F000D501000059030000D103000051040000A1
:100500007047000010B594B010AC6B4612932100F8
:10051000084B9847637B002B06D0012B08D1064A75
:1005200013680133136003E0034A13680133136057
:1005300014B010BD1109000044000020F0B5CE46F3
:10054000474680B589B001AB00261E700122914656
:100550005A7002229A700132DA7004AD1A4A04927B
:100560002E71069304232B736E73184C184A0121C5
:100570002000184FB8472000174B9847290020004B
:10058000164B98469847164B04934B466B732900BD
:100590002000C047134A00212000B847124B0293A5
:1005A000039602AB002200212000104DA847104BFB
:1005B0000293039602AB012201212000A84709B053
:1005C0000CBC90469946F0BD5A04000088060020F5
:1005D0000105000081090000E90800004909000048
:1005E000A50000100505000069040000D109000005
:1005F0009600001043684B609A688A609A68516060
:1006000099600861036801330360704703694268B9
:10061000816891608268416851605A68904206D052
:10062000002202611A68013A1A60186870478268ED
:100630005A60F5E7EFF3108072B6704780F31088C8
:1006400070470000000000000000000000000000F3
:10065000EFF309800E4B1A6820381060F0C0444652
:100660004D4656465F46F0C008B572B600F0BEF87B
:1006700062B60CBC116808681030F0C8A046A946E4
:10068000B246BB4680F309882038F0C81847C046F8
:100690002001002010B5074B98470400064B9847EF
:1006A000002803D080225205044B1A602000044B1E
:1006B000984710BD35060000ED06000004ED00E08F
:1006C0003D060000084B9B6A1B68002B06D0064BBA
:1006D0009A6AD268D2685268DA627047012252423E
:1006E000014BDA62F9E7C04648000020F8B5394B03
:1006F0001B6F002B62D1374BDD6E0135DD66002D9F
:1007000011D1354B9B6A1B68002B01D072B6FEE7F6
:10071000314A916A2F4B186D906219659A6F0132B8
:100720009A672E4B98472C4BDB6A9D423CD20024A3
:10073000284B9B6DDA6A93009B189A00264B9B18F6
:100740001B6B012B3FD901243DE00124224B9B6A06
:100750001B68002B2AD0204B9B6ADB68DE6873681D
:100760009D4228D3371D38001D4B9847B36A002B94
:1007700003D0300018301A4B9847F26A154B5B6E65
:100780009A4201D9134B5A6693009B189A0012485B
:10079000303080183900134B9847F26A0D4B9B6D2F
:1007A000DB6A9A42D1D2D1E70024CFE7012252423C
:1007B000094BDA62BCE7084AD362B9E7054AD36F4E
:1007C0000133D3670024084B1B68002B00D00124A1
:1007D0002000F8BDC800002048000020C506000029
:1007E0000D060000F50500004801002010B51D4B66
:1007F0001B6F002B10D100221B4B1A60194B5B6E34
:100800009A00D2189100194A5218126B002A09D185
:10081000002B05D0013BF3E70122134B1A6010BDFA
:1008200072B6FEE7114A9900CC18A0001018446B6C
:10083000646844633032C918880008301218944242
:100840000AD09A00D2189100084A5218526BD16807
:10085000044A91655366E2E760688900034A5218CA
:100860005063EEE7C8000020480100204800002047
:1008700010B5C369002B00D0984710BD10B5036AAE
:10088000002B00D0984710BD10B5436A002B00D054
:10089000984710BD70B504000D00002815D0002940
:1008A00011D0012041220A490A4B98472900200013
:1008B000094B9847002805D1084B6360084BA3609B
:1008C000084BE36070BD0020ECE70020EAE7C0467B
:1008D000FC210000810C0000E90C00007108000000
:1008E0007D0800008908000010B50400431E9841EF
:1008F000C0B25C220349044B98472000034B984741
:1009000010BDC046FC210000810C0000D10E00008B
:1009100070B504000D0000280DD0002909D0012079
:100920006E220649064B984729002000054B984740
:1009300070BD0020F4E70020F2E7C046FC21000073
:10094000810C0000E10E000070B504000D000028CD
:100950000DD0002909D0012077220649064B98477F
:1009600029002000054B984770BD0020F4E70020C7
:10097000F2E7C046FC210000810C0000BD0F000022
:1009800070B506000D001400431E9841C0B28122CC
:100990000C490D4B9847012D10D0002D04D0022D8D
:1009A0000ED00D20404208E03462621E9441E2B253
:1009B00029003000054B9847002070BDF461F4E732
:1009C0007462F2E7FC210000810C0000311100008C
:1009D000F8B504000D0016001F00431E9841C0B278
:1009E000B8220549054B98473B00320029002000FA
:1009F000034CA047F8BDC046FC210000810C00005C
:100A00008511000010B54369002B00D0984710BD38
:100A100010B58369002B00D0984710BD70B5040055
:100A20000D00002813D000290FD0012038220949D9
:100A3000094B984729002000084B9847002803D10C
:100A4000074B2360074B636070BD0020EEE700207A
:100A5000ECE7C04618220000810C000019140000C9
:100A6000050A0000110A000070B504000D000028FE
:100A700017D0002913D0012040220B490B4B984777
:100A80006560201D29000A4B9847002806DB094BAA
:100A9000A382094B2361094BE360002070BD002055
:100AA000EAE70020E8E7C04630220000810C0000A1
:100AB000151500000080FFFF450B0000090B00002A
:100AC00030B587B004000D00002815D0002911D0E2
:100AD0000120B32209490A4B98472B6803936B689E
:100AE0000493AB6801930593201D03A9054B984718
:100AF00007B030BD0020ECE70020EAE7302200001C
:100B0000810C00001117000070B584B004000E00C5
:100B10001500431E9841C0B2A3220749074B9847CE
:100B200020000C38002302930196039501A9044B81
:100B3000984704B070BDC04630220000810C000010
:100B4000C10A000070B584B004000E001500431EF9
:100B50009841C0B287220749074B984720000C38BC
:100B6000029600230193039501A9044B984704B012
:100B700070BDC04630220000810C0000C10A000098
:100B8000F8B50668002E02D0330000250CE0104BAB
:100B9000984718E09F68BC466444A41A01348F68E3
:100BA000BC420BD21D001B68002B07D05C6894422E
:100BB000F0D8A41A9F68BC466444F0E7B34203D05F
:100BC0002800044B9847F8BD014B9847FBE7C04607
:100BD000A10C0000CD0C0000F8B5050044690369C4
:100BE0005E1C0661037EDB0702D4037E9B070AD5E9
:100BF0002B7E02221343DBB22B76F8BD6F69E368CC
:100C0000200098473C00002CF7D06368F31AA268D4
:100C10009342F2D32F0014373800064B9847237CB9
:100C2000012BEBD16660320021003800024B98475F
:100C3000E4E7C046D50C0000810B000070B504004D
:100C40000D00002812D000290ED001203B220849B7
:100C5000084B984729002000074B98470023236141
:100C6000064B2360002070BD0020EFE70020EDE779
:100C70004C220000810C0000C1180000D90B0000BC
:100C8000002800D100BE70470368002B03D08B42C0
:100C900003D01B68F9E7002070470120FCE7000043
:100CA00070B504000D00064B984701235840C0B2B0
:100CB00039220449044B984723682B60256070BD96
:100CC000890C000064220000810C000003680B60A6
:100CD000016070470368002B03D01A680260180097
:100CE00070470020FCE70000F0B501608B6901222D
:100CF00013438B6103689A69D207FBD59A69022472
:100D000022439A61644B994212D0644B994269D054
:100D10000268936902218B439361026893690139E8
:100D20008B43936103689B69DB07FBD40020F0BD14
:100D30005B4B1A0001C25B4C84610468A569A56124
:100D400004680026A6600468574DE5610468574DA5
:100D5000E560574C2404240C564D2C43A02507680D
:100D60007C51993DBC2407683D510C3405682E51D7
:100D7000514C2404240C8025AD042C43C025066866
:100D800074511204120C8024A402224330350668E8
:100D90007251703D2822066872511A0014321204F2
:100DA000120C22438424066832511C331B041B0C92
:100DB000A0221203134388220468A3503F4A9023C1
:100DC0000468E2503E4B802212025A51BFF34F8F0B
:100DD000BFF36F8FC02464001A511A6003680122A8
:100DE000DA6592E72E4BD8662E4A14328261026889
:100DF0009169916102680021916002682A4CD46176
:100E000002682A4CD4602F4A1204120C294C224347
:100E1000A02405682A51BC220468A1500C32046841
:100E2000A150294A1204120C802189040A43C021CE
:100E30000468625070331B041B0C8022920213431F
:100E40003031046863508024282301680B511F4B04
:100E50001904090C0A43842105686A5008331B04ED
:100E60001B0CA02212031343882201688B50134AE3
:100E700090230168CA50124B802252021A51BFF3CC
:100E80004F8FBFF36F8FC02149005A501A6003681B
:100E90000122DA653CE7C046001C00420020004207
:100EA0004C0100200000002003020002310200007B
:100EB0000407002000001080A40C0020FFFFFF1F8B
:100EC00000E100E0A40B0020840B0020CC010020F6
:100ED0000268936901218B439361002070470000F1
:100EE000F0B5CE46474680B585B080460268A4235B
:100EF000D3585B064FD0A423D458240A653B1C402A
:100F0000A146284B9A4231D000232748824233D051
:100F1000002B43D01A68520033D400224A731A6857
:100F2000D200520D0A601A68920031D46A461F48F6
:100F30006E46B0C8B0C60068306058680003000F45
:100F4000125C0A73886808331900194B98474346A6
:100F50001968A8228B583F2083434C461C438C5071
:100F6000002005B00CBC90469946F0BDE000484416
:100F7000C30010481B18C8E74B461B010E4A9B18BC
:100F8000C6E701224A731A68D200D2080A60CAE78B
:100F900001220A71CAE70A204042E2E71C204042CF
:100FA000DFE7C046001C004200200042842200000F
:100FB000BD21000004070020A40B002070B505002F
:100FC0000368C4229A58920200D59AE0C422985825
:100FD000000CA53A02404E4883423DD000204D4CC3
:100FE000A3423DD0002800D18EE04B7B012B3BD0AB
:100FF0000B689B0403600A7B082A3DD844680F23D2
:1010000013401B04444A1440234343602B689B69EC
:101010001B0A0124426823405B05404E32401343C3
:1010200043602B689B695B0A426823401B053C4E6A
:1010300032401343436008308B680A7B1900394BF8
:1010400098472968C423CA58120CA53B13409C40FA
:10105000D023CC50002070BD1401334EA019BEE740
:10106000120132481018BDE70B6803600268802344
:10107000DB0513430360BEE70C2A07D84268264B02
:101080001A4090231B0313434360BFE7102A07D87D
:101090004268214B1A40A0231B0313434360B5E76A
:1010A000142A07D842681C4B1A40B0231B03134371
:1010B0004360ABE7182A07D84268174B1A40C02391
:1010C0001B0313434360A1E7202A07D84268124B51
:1010D0001A40D0231B031343436097E7302A07D8F5
:1010E00042680D4B1A40E0231B03134343608DE716
:1010F000402A00D98AE74268F0231B031343436068
:1011000084E71C204042A6E71C204042A3E7C046DB
:10111000001C004200200042FFFFF0FFFFFFDFFF46
:10112000FFFFEFFFBD210000A40C0020840B002076
:1011300010B500290BD0012910D002290DD101686A
:101140004B6D0D4A1A400D4B13434B6505E001688A
:101150004B6D012083431A434A6510BD01684B6DF6
:10116000074C234052021A434A6502680121494252
:10117000E023D150F1E7C0460102000008008003DF
:10118000FFFDFFFF30B584698800E568AC46604428
:101190002469C9006118002A1DD1002B19D05A6892
:1011A00002601B6802685B055B0917490A4013432C
:1011B000036003689B009B08802212061A430260AA
:1011C0000268124B1A4080231B0513430360002062
:1011D00030BD0360FBE7012AF9D1002B12D01A6859
:1011E0000A600A68D200D208802080051043086097
:1011F0005B684B604B689B009B08802212061A4379
:101200004A60E4E70B60E2E7FFFF00F8FFFFFFC77B
:1012100070B51A4B1D682B681C6DE30714D4A30529
:1012200016D4A30118D4E3011BD4230207D5EB681D
:101230002A68526C920619D5022128009847230784
:1012400016D42B681C6570BD2800AB689847E6E78C
:1012500028006B689847E4E703212800EB6898476B
:10126000E1E700212800EB689847DEE70121E4E789
:1012700004212800EB689847E3E7C0464C010020B2
:1012800070B51A4BDD6E2B681C6DE30714D4A305F3
:1012900016D4A30118D4E3011BD4230207D5EB68AD
:1012A0002A68526C920619D5022128009847230714
:1012B00016D42B681C6570BD2800AB689847E6E71C
:1012C00028006B689847E4E703212800EB689847FB
:1012D000E1E700212800EB689847DEE70121E4E719
:1012E00004212800EB689847E3E7C0464C01002042
:1012F00010B5084B5A685A60074B9847074B9847F8
:10130000074B9847074B9847FF20074B9847074BD9
:10131000984710BD00400041A9140000C51400000A
:101320000D14000001150000E91300003113000046
:101330009022D205137802218B431370704710B5A9
:1013400082B0EFF31083019372B69023DB051A7815
:10135000012422431A709860D9609023DB051B7921
:10136000DB07FAD49023DB051869019B83F310880F
:1013700002B010BD10B582B0EFF31083019372B6C6
:101380009023DB051A780124A2431A709860D96073
:101390009023DB051B79DB07FAD49023DB05186962
:1013A000019B83F3108802B010BD000010B582B01D
:1013B000EFF31083019372B69023DB051A780124B2
:1013C000A2431A709860D9609023DB051B79DB0774
:1013D000FAD4044B18685968019B83F3108802B053
:1013E00010BDC04610000048C30707D5044A054B8E
:1013F0001A62044B5A68044B1A42FAD17047C0462D
:1014000006010100001C0040FD0700000122014B05
:101410001A7170470008004070B505000C000028E4
:101420001CD0104B99421BD0002046220E490F4B76
:1014300098472C6162689E23134063600C4B1D60CB
:101440000C4B402280215A50BFF34F8FBFF36F8F58
:101450000131FF315A501A60002070BD0020E4E7CE
:101460000120E2E70040004194220000810C0000CE
:101470002402002000E100E010B50A4B186803695F
:101480001A7DD20704D50368002B00D0984710BD01
:101490001A7D9207FBD502221A754368002BF6D0FD
:1014A0009847F4E724020020054AD3691B0A1B026F
:1014B000F82149010B40D361012313617047C046F5
:1014C000001400400D4B02221A7509325A750B4B5D
:1014D0009B695B07FBD4094B9B695B07FBD4072225
:1014E000064B9A75054BDB68DB06FBD5034A137D7B
:1014F000802149420B43DBB2137570470010004056
:1015000070470000024B9C466044800AC0B270479E
:1015100000FCFFBD70B506000C000800714B984739
:101520000023002B00D184E00025002E00D18DE0A7
:10153000002C00D188E001206B4A6C496C4B984725
:10154000002D00D1CBE0E369DB0721D42A786B784A
:101550001B021343AA7812041343EA7812061A43B3
:101560001C231A40E3699B07FCD123689B0709D51C
:10157000236802218B432360E3699B07FCD1E36965
:101580009B07FCD4012313432360E3699B07FCD131
:10159000E369DB07FCD434602B786A7812021A43C3
:1015A000AB781B041A43EB781B0613431C22134031
:1015B000082B4DD0002C00D18DE0002D00D188E00B
:1015C00001204C4A49494A4B98472B786A781202C5
:1015D0001A43AB781B041A43EB781B061343464AA5
:1015E00013402360E3699B07FCD12B796A791202CF
:1015F0001A43AB791B041A43EB791B0613433F4A8A
:1016000013408022920213436360E3695B07FCD1BD
:101610002B7B23736A7B3023E2542B795B075CD1ED
:1016200001233371AA7BEB7B1B021343F380002061
:1016300070BD012802D00133DBB272E71D01EA1848
:101640002F4D3C35AD1870E7002075E7002073E79B
:10165000002C3CD0002D38D001202A4A2349244BAD
:1016600098472B786A7812021A43AB781B041A4306
:10167000EB781B061343204A13402360E3699B0762
:10168000FCD12B796A7912021A43AB791B041A43F5
:10169000EB791B0613431C4A13401C4A1343636037
:1016A000E3695B07FCD12B7A6A7A12021A43AB7AA0
:1016B0001B041A43EB7A1B06134363626A7B3023D5
:1016C000E254E369002BFCD1A7E70020C5E7002026
:1016D000C3E7002075E7002073E70223A1E70D2090
:1016E0004042A5E70515000025090000042300007D
:1016F000810C0000EF080000FCFEFFFFBF1DFDFF96
:10170000B422000003090000BFDDFDFF400202001B
:10171000F0B5CE46474680B589B081460D000468D5
:101720000B6803934B680493002305930693067993
:10173000002814D0002C10D00120374A3749384BEC
:101740009847E3695B0764D1E3699B07FCD1236891
:101750009B0720D41420404256E00020EDE70020F3
:10176000EBE700222DE04878000247460743B846E1
:1017700002310391013205924246A2625BB2002B14
:1017800035DB002000283ADB0598AB68984202D38D
:10179000069A934233D9237EDBB25A07E1D5A16A78
:1017A000049A002A08D0501C04901170012E03D90D
:1017B000901C0490090A5170069A01920132069217
:1017C0000122002ADAD10699059A9142D6D34946D8
:1017D000C888D907D2D50399002906D0481C0390A0
:1017E00008788046012EBED8C4E78046C2E70123B0
:1017F0005B4263838133237613204042C2E7237E1A
:101800009B07FCD00323237609B00CBC9046994675
:10181000F0BD04204042F7E7850A000004230000E1
:10182000810C000010B5C3689A7AD20700D410BDAD
:1018300001229A7203689847F9E70000064B984224
:1018400003D0064B984203D07047054B1960F8E768
:10185000034B5960F8E7C0460030004200340042B4
:101860002802002010B5114B984211D0104B9C4615
:101870006044800AC2B2002001280DD883001B18E2
:1018800099000C4BCB5C934204D00130C0B2F3E71B
:101890000422F0E740B207E0A322520006490020EC
:1018A000064B98470120404210BDC0460040004210
:1018B00000D0FFBD2023000048230000810C000061
:1018C00070B506000C000800654B98470500F460F1
:1018D0008F2264490120644B98472369DB0714D4A5
:1018E00023699B07FCD123689B0709D52368022243
:1018F0009343236023699B07FCD123699B07FCD496
:101900000123236023699B07FCD12369DB07FCD4F7
:10191000AB005B199A00554B9B185B6823602369E9
:101920009B07FCD1AA0052199100504B5B189A7A80
:10193000E2731A89E280012222735A680C23134051
:10194000082B56D0002B68D1AB005B199A00474B8F
:101950009B189B89A3832369C0221A42FBD1AB0049
:101960005B199A00414B9B181B8AE3832369C022B1
:101970001A42FBD101236372310020003C4B98478F
:10198000AB005B199A00394B9B185B785BB2002B5C
:101990000BDB1F2213401E3A9A4013008022354968
:1019A0008B50BFF34F8FBFF36F8FAB005B199A0063
:1019B0002E4B9B185B785BB2002B08DB1F22134079
:1019C0001E3A9A401300C02252002A498B50AB00A5
:1019D0005D19AA00254B9B185B785BB2002B06DBD8
:1019E0001F2213401E3A9A401300224A136000201F
:1019F00070BD1E4B5B18DB68E3612369C0221A428D
:101A0000FBD1AB005B199A00184B9B181B69236232
:101A10002369C0221A42FBD1ACE7042BAAD1AB0048
:101A20005B199A00114B9B181B7B23772369C022FB
:101A30001A42FBD1AB005B199A000C4B9B181B7C24
:101A400063772369C0221A42FBD1AB005B199A006D
:101A5000064B9B18DB7AE37623699B06FCD489E767
:101A60006518000048230000810C000020230000BE
:101A70003D18000000E100E00020704710B5024B67
:101A80001868024B984710BD280200202518000056
:101A900010B5024B5868024B984710BD2802002031
:101AA0002518000010B5041E27D00368002B22D093
:101AB000012050221549164B984723689A680E2139
:101AC0001142FBD11A78D20919D19A680E2111421C
:101AD000FBD11A78920715D41A780A398A431A70FA
:101AE0009A680E211142FBD12268537801318B4351
:101AF0005370002010BD0020DBE70020D9E7112043
:101B00004042F7E711204042F4E7C0465C23000062
:101B1000810C000010B5054B9847054B9847054BC5
:101B20001A6805490020054B9847F8E71D01000099
:101B30003D050000440000207423000055210000F2
:101B40000369C268934202D9981A013870478068C5
:101B5000801A18180138F9E7F0B583B00500019133
:101B60001600C7688368DC1B94420ED84368D819F6
:101B700022000199084FB847361B019B1919320002
:101B80006868B847EE6003B0F0BD4368D819024BEF
:101B90009847BE19EE60F6E7BD210000F8B5CE46C5
:101BA000474680B5050089461600C468002398465C
:101BB00015E01B1BAA6894466344013B14E06B6864
:101BC00018193A004946114B9847B844B944F61BD6
:101BD000E419AB689C4211D0EC60002E10D02B6948
:101BE0009C42E6D21B1B013BAA68121B934200D900
:101BF000130037009E42E2D91F00E0E70024EBE724
:101C000040460CBC90469946F8BDC046BD21000038
:101C100010B5144CA82200212000134B9847032331
:101C200023616361114AA261114BE3618023DB00F0
:101C300023620023A3626362E36222660D4A626646
:101C40001022A2662367E366636707E00F21C91AC3
:101C5000094A5218117C034AD15401330F2BF5D98C
:101C600010BDC046C40C0020CF210000A4230000FA
:101C7000300200203006002080230000F8B50F005D
:101C80001600421C53009B18DD00174BED18420054
:101C90001018C2009B18DC6A012C11D0002C03D054
:101CA000022C1BD0002417E02800104B9847B042AC
:101CB00012D33200390028000D4B984734000BE056
:101CC00028000A4B98473400864200D904002200BD
:101CD00039002800064B98472000F8BD3200280044
:101CE000044B98470400F7E7C40C0020411B000098
:101CF000591B00009D1B0000F8B505000E001700E1
:101D0000094B1B78002B0CD0EFF31084012181F3D9
:101D100010883A0031002800044B984784F310885B
:101D2000F8BD034B9847EFE7C40C00207D1C000072
:101D3000111C000010B504008268531C40688342E7
:101D400005D820688154A360E3680133E360A2688A
:101D500063689A4200D010BD21682069054B9847FE
:101D6000A368984203D001235B42E360F3E70023BA
:101D7000A360F0E7F91C0000F0B5DE464F4646468A
:101D8000C0B582B00600019115001C000A9B984660
:101D900008000123994605E02900384B98470123A4
:101DA0009C46E144A842F7D2A14500D2A1460123B6
:101DB0000B9A1A4093461AD14346002B17D00B9B1F
:101DC0009B0703D5002C17D0202700E0202743468F
:101DD000002B0CD0C8450AD901235B429C46E04445
:101DE00039003000264B9847F368002BEFDAF36890
:101DF000002B3CDB012708E03027E8E73900019899
:101E00001E4B9847854204D86F43012CF6D9013CFC
:101E1000FAE739000198194B9847040039000198F6
:101E2000184B98470191184B195D3000144B984797
:101E3000F368002B05DB29003800104B9847071E7C
:101E4000E7D15B46002B12D04346002B0FD0434610
:101E5000002B0CD0C8450AD901235B429C46E044C4
:101E600020213000064B9847F368002BEFDA02B0D0
:101E70001CBC90469946A346F0BDC04675130000B1
:101E8000351D0000AD130000B0230000F0B5D646AC
:101E90004F4680B583B00600894615009A460A9FD2
:101EA000CA1788185040012403E02900344B984792
:101EB0000134A842F9DA544500D25446002F06D026
:101EC0004B46002B02DB0B9B5B0700D5013F0B9BB6
:101ED0009B0702D55346002B04D00B9BDB0701D494
:101EE000002F21D1F368002B19DB4B46002B28DB98
:101EF0000B9B5B072CD4F368002B10DB03230B9A9E
:101F00001340022B29D0F368002B08DB0B9B0193B5
:101F1000009753462A00494630001A4CA04703B0A8
:101F20000CBC91469A46F0BD002FDBD0A742D9D910
:101F3000013F20213000144B9847F368002BF3DA5F
:101F4000D0E75B4299462D2130000F4B9847D2E7EE
:101F50002B2130000C4B9847CDE75346002BD2D1B4
:101F6000002FD0D0002FCED0A742CCD9013F3021B6
:101F70003000054B9847F368002BF3DAC3E7C046FF
:101F80003F130000791D0000351D0000F0B5C64666
:101F900000B59AB080460C00150005AB15934023A0
:101FA000169300231793199018938DE000200122B7
:101FB0000AE0232B18D108231843013402E001233F
:101FC00018430134002A11D023782B2B08D0F0D9E4
:101FD0002D2BF4D0302B07D1022318430134F1E725
:101FE000042318430134EDE70022EBE7277839009A
:101FF0003039C9B2092907D8013491008A18530031
:10200000DB19303B1A00F1E72E2F02D00023217894
:1020100011E00134002326783700303FFFB2092F4A
:10202000F5D801349F00FB18590089190B00303B8B
:10203000F1E7013421786C29FBD06829F9D06429B3
:102040004DD00FD9732955D017D9752924D12968B6
:102050000F1D2F600968019000920A2215A8394FC0
:10206000B8472DE0582919D0632922D0252927D136
:10207000252115A8344B984722E0702920D12B68E0
:102080001A1D2A6019680023019308330093102257
:1020900015A82C4FB84713E0782911D129680F1DD6
:1020A0002F60096801900092102215A8254FB847AB
:1020B00006E02B681A1D2A60197815A8224B98474C
:1020C0000134189B002B24DB21780134002920D017
:1020D000252900D16AE715A81B4B9847F1E7296825
:1020E0000F1D2F600968019000920A2215A8174F52
:1020F000B847E5E72B681A1D2A601F683978013751
:102100000029DDD015A8104B9847189B002BF5DA55
:10211000D6E7189B002B0BDD179A002A0DD1179BD1
:102120000293189B0393029B039A9446634418936B
:1021300018981AB004BC9046F0BD05A94046044B5F
:102140009847ECE7791D0000351D00008D1E00004A
:10215000F91C00000EB400B582B003AB02CB0193B2
:1021600001AA034B984702B008BC03B01847C04609
:102170008D1F000070B500260C4D0D4C641BA41083
:10218000A64209D1002600F01BF90A4D0A4C641B37
:10219000A410A64205D170BDB300EB589847013694
:1021A000EEE7B300EB5898470136F2E7CC23000086
:1021B000CC230000CC230000D0230000002310B566
:1021C0009A4200D110BDCC5CC4540133F8E703003F
:1021D0008218934200D1704719700133F9E700006B
:1021E0002E2E2F68616C2F696E636C7564652F6885
:1021F000616C5F7764742E68000000002E2E2F68DB
:10220000616C2F7372632F68616C5F63616E5F61D5
:1022100073796E632E6300002E2E2F68616C2F730E
:1022200072632F68616C5F666C6173682E63000077
:102230002E2E2F68616C2F7372632F68616C5F7331
:1022400070695F6D5F73796E632E63002E2E2F6849
:10225000616C2F7372632F68616C5F74696D657256
:102260002E6300002E2E2F68616C2F7574696C73BD
:102270002F7372632F7574696C735F6C6973742E3E
:10228000630000000001020304050607080C101497
:10229000182030402E2E2F68706C2F6E766D637470
:1022A000726C2F68706C5F6E766D6374726C2E63E7
:1022B000000000000000000000000000000000001E
:1022C000000000000000000000000000000000000E
:1022D00000000000000000000000000000000000FE
:1022E00000000000000000000000000000000000EE
:1022F0000C00010000000200000000002700FF01A8
:10230000010000002E2E2F68706C2F736572636FB2
:102310006D2F68706C5F736572636F6D2E63000064
:10232000001400000803000000000000F401000099
:10233000000000000115000008030000000000007C
:10234000F4010000000000002E2E2F68706C2F7426
:10235000632F68706C5F74632E6300002E2E2F68ED
:10236000706C2F7764742F68706C5F7764742E6361
:1023700000000000636E74203D2025640D0A0000FB
:1023800030313233343536373839414243444546AB
:102390000000000000005454522052454747455366
:1023A000000000005465726D696E616C00000000F1
:1023B000303132333435363738394142434445467B
:1023C000F8B5C046F8BC08BC9E467047E500000062
:1023D000F8B5C046F8BC08BC9E467047BD0000007A
:1023E00004070020A40C0020500100206001002000
:1023F00068010020A40B0020840B0020BC010020F9
:08240000CC010020D4010020F2
:00000001FF
