:10000000F82A00202D01000029010000290100002C
:1000100000000000000000000000000000000000E0
:1000200000000000000000000000000029010000A6
:100030000000000000000000210500006505000030
:10004000290100002901000095100000290100008D
:1000500029010000290100005D0E000029010000B7
:1000600029010000290100002901000029010000E8
:10007000290100002901000029010000810C000075
:10008000F10C0000290100002901000029010000F5
:10009000711700002901000029010000290100005A
:1000A00029010000290100002901000029010000A8
:1000B00029010000290100002901000010B5064CAB
:1000C0002378002B07D1054B002B02D0044800E019
:1000D00000BF0123237010BD680000200000000055
:1000E000F8190000084B10B5002B03D00749084849
:1000F00000E000BF07480368002B00D110BD064B8D
:10010000002BFBD09847F9E7000000006C000020AE
:10011000F8190000F81900000000000010B5014BAC
:10012000984710BD81040000FEE7000010B5104A9A
:10013000104B9A4209D00F4B0D4A03E01168196029
:10014000043304320C498B42F8D30C4B02E00022FA
:100150001A6004330A4A9342F9D30A4AFF210A4B30
:100160008B439360094B9847094B9847FEE7C0467D
:10017000F81900000000002068000020680000203E
:10018000F40A002000ED00E0000000000918000063
:10019000F517000010B5074A516980239B000B43F7
:1001A0005361054B9847020004490548054B9847A1
:1001B00010BDC046000800408D1000000024004023
:1001C00094020020F109000010B5094AD16980238A
:1001D0005B010B43D3614021F823064AD150064B03
:1001E0009847020005490648064B984710BDC0468F
:1001F00000080040001C0040691700000030004269
:100200005C020020F1090000024A136920210B431F
:10021000136170470008004010B5034B984703492D
:100220000348044B984710BD0902000000400041FC
:1002300014020020D1070000F0B5C64600B5C02466
:10024000E40580235B0263608223DB05234A9A6214
:10025000234A9A6250215A5C042082435A545A5CC1
:100260000126B24301252A43D2B25A5418395A5CA6
:100270000B308446824302273A43D2B25A5480223A
:10028000D2026261A2608022D20590469A6215492C
:1002900099625221585CB0432843C0B25854392067
:1002A000195C624691433943C9B21954802109034C
:1002B0006161A16042469A620B4A9A6253215A5C7C
:1002C000B2432A43D2B25A541A5C44390A4020211C
:1002D0000A43D2B21A5404BC9046F0BD000002405A
:1002E000010002C0040000C0080000C0064B40210D
:1002F000D02299500331083A9950044AD3693F39C2
:100300000B43D3617047C046001C0040000800400A
:1003100010B5044B984704490448054B9847054BD2
:10032000984710BDED020000000800427C0200204A
:100330001D08000039020000034A516980235B0058
:100340000B4353617047C0460008004010B5064B90
:100350009847482205490120054B98470548064B18
:100360000360064B984710BD390300005018000089
:100370003D0A0000580200200020004085170000C0
:1003800030B58223DB055922995C0125A94301245C
:100390002143C9B299543C20195C4A3A1140602269
:1003A0001143C9B2195458215A5CAA432243D2B20C
:1003B0005A541A5C49398A4306210A43D2B21A5464
:1003C00030BD000010B5084A116980235B000B4363
:1003D00013614021E823054AD15005490548064BE1
:1003E0009847064B984710BD00080040001C00408D
:1003F000001C00423002002065070000810300005D
:1004000030B58223DB05CB22995C0125A943012469
:100410002143C9B29954B520195CBC3A11406022FD
:100420001143C9B21954CA215A5CAA432243D2B219
:100430005A541A5CBB398A4306210A43D2B21A5471
:1004400030BD000010B5084A116980239B000B43A2
:1004500013614021EC23054AD15005490548064B5C
:100460009847064B984710BD00080040001C00400C
:1004700000200042EC01002065070000010400009C
:1004800010B5084B9847084B9847084B9847084BBE
:100490009847084B9847084B9847084B9847084B94
:1004A000984710BD7D0D0000190200009501000065
:1004B00011030000C90100004D030000C503000046
:1004C00045040000704743684B609A688A609A68E8
:1004D00051609960086103680133036070470369E4
:1004E0004268816891608268416851605A689042B0
:1004F00006D0002202611A68013A1A601868704733
:1005000082685A60F5E7EFF3108072B6704780F3A7
:10051000108870470000000000000000000000008C
:10052000EFF309800E4B1A6820381060F0C0444683
:100530004D4656465F46F0C008B572B600F0BEF8AC
:1005400062B60CBC116808681030F0C8A046A94615
:10055000B246BB4680F309882038F0C81847C04629
:100560005C01002010B5074B98470400064B9847E4
:10057000002803D080225205044B1A602000044B4F
:10058000984710BD07050000BD05000004ED00E020
:100590000F050000084B9B6A1B68002B06D0064B1A
:1005A0009A6AD268D2685268DA627047012252426F
:1005B000014BDA62F9E7C04684000020F8B5394BF8
:1005C0001B6F002B62D1374BDD6E0135DD66002DD0
:1005D00011D1354B9B6A1B68002B01D072B6FEE728
:1005E000314A916A2F4B186D906219659A6F0132EA
:1005F0009A672E4B98472C4BDB6A9D423CD20024D5
:10060000284B9B6DDA6A93009B189A00264B9B1827
:100610001B6B012B3FD901243DE00124224B9B6A37
:100620001B68002B2AD0204B9B6ADB68DE6873684E
:100630009D4228D3371D38001D4B9847B36A002BC5
:1006400003D0300018301A4B9847F26A154B5B6E96
:100650009A4201D9134B5A6693009B189A0012488C
:10066000303080183900134B9847F26A0D4B9B6D60
:10067000DB6A9A42D1D2D1E70024CFE7012252426D
:10068000094BDA62BCE7084AD362B9E7054AD36F7F
:100690000133D3670024084B1B68002B00D00124D2
:1006A0002000F8BD04010020840000209505000012
:1006B000DF040000C70400008401002010B51D4BBA
:1006C0001B6F002B10D100221B4B1A60194B5B6E65
:1006D0009A00D2189100194A5218126B002A09D1B7
:1006E000002B05D0013BF3E70122134B1A6010BD2C
:1006F00072B6FEE7114A9900CC18A0001018446B9E
:10070000646844633032C918880008301218944273
:100710000AD09A00D2189100084A5218526BD16838
:10072000044A91655366E2E760688900034A5218FB
:100730005063EEE7040100208401002084000020C3
:1007400010B5C369002B00D0984710BD10B5036ADF
:10075000002B00D0984710BD10B5436A002B00D085
:10076000984710BD70B504000D00002815D0002971
:1007700011D0012041220A490A4B98472900200044
:10078000094B9847002805D1084B6360084BA360CC
:10079000084BE36070BD0020ECE70020EAE7C046AC
:1007A0006C1800003D0A0000A50A00004107000087
:1007B0004D0700005907000010B54369002B00D019
:1007C000984710BD10B58369002B00D0984710BD25
:1007D00070B504000D00002813D000290FD00120AF
:1007E00038220949094B984729002000084B9847AF
:1007F000002803D1074B2360074B636070BD0020C6
:10080000EEE70020ECE7C046881800003D0A000033
:10081000FD0D0000B9070000C507000070B5040019
:100820000D00002817D0002913D0012040220B49C9
:100830000B4B98476560201D29000A4B98470028FC
:1008400006DB094BA382094B2361094BE3600020BF
:1008500070BD0020EAE70020E8E7C046A0180000CD
:100860003D0A0000B91000000080FFFFF9080000F9
:10087000BD08000030B587B004000D00002815D079
:10088000002911D00120B32209490A4B98472B684F
:1008900003936B680493AB6801930593201D03A930
:1008A000054B984707B030BD0020ECE70020EAE791
:1008B000A01800003D0A0000B512000070B584B019
:1008C00004000E001500431E9841C0B2A322074940
:1008D000074B984720000C3800230293019603959C
:1008E00001A9044B984704B070BDC046A018000091
:1008F0003D0A00007508000070B584B004000E00C9
:100900001500431E9841C0B287220749074B9847FC
:1009100020000C38029600230193039501A9044B93
:10092000984704B070BDC046A01800003D0A000002
:1009300075080000F8B50668002E02D033000025C7
:100940000CE0104B984718E09F68BC466444A41A1A
:1009500001348F68BC420BD21D001B68002B07D0EE
:100960005C689442F0D8A41A9F68BC466444F0E7DF
:10097000B34203D02800044B9847F8BD014B984779
:10098000FBE7C0465D0A0000890A0000F8B50500D3
:1009900044690269561C0661037EDB0702D4037EAC
:1009A0009B070AD52B7E02221343DBB22B76F8BDC0
:1009B0006F69E368200098473C00002CF7D063681B
:1009C000F31AA2689342F2D32F0014373800064B73
:1009D0009847237C012BEBD1666032002100380060
:1009E000024B9847E4E7C046910A00003509000031
:1009F00070B504000D001600002815D0002915D090
:100A0000002A0FD001203B2209490A4B98472000B9
:100A100040C033682900984700236361064B636038
:100A2000002070BD0020EEE70020ECE70020EAE7A0
:100A3000BC1800003D0A00008D090000002800D10C
:100A400000BE70470368002B03D08B4203D01B68A5
:100A5000F9E7002070470120FCE7000070B50400B2
:100A60000D00064B984701235840C0B23922044973
:100A7000044B984723682B60256070BD450A000031
:100A8000D41800003D0A000003680B600160704745
:100A90000368002B03D01A6802601800704700201A
:100AA000FCE70000F0B501608B69012213438B6104
:100AB00003689A69D207FBD59A69022422439A6196
:100AC000644B994212D0644B99426AD00268936990
:100AD00002218B4393610268936901398B439361CF
:100AE00003689B69DB07FBD40020F0BD5B4B1A0059
:100AF00001C25B4C84610468A569A5610568002496
:100B0000AC600568574EEE6105683226FF36EE6030
:100B1000554D2D042D0C8026F6033543A02607687D
:100B2000BD51BC25066874510C35066874514F4D93
:100B30002D042D0C8026B6043543C0260768BD5110
:100B40001204120C8025AD022A4330360768BA51D0
:100B500080229446583A07686646BA511A00143201
:100B60001204120C2A4384270668F2511C331B041A
:100B70001B0C2B4388220568AB5090230268D4508D
:100B80003B4B8022120264461A51BFF34F8FBFF3D2
:100B90006F8F0134FF341A511A6003680122DA653D
:100BA00091E72E4BD8622E4A143282610268916915
:100BB000916102680021916002682A4CD461026848
:100BC0003224FF34D4602B4A1204120C2A4C2243E4
:100BD000A02405682A51BC220468A1500C32046884
:100BE000A150264A1204120C8024A4042243C024DB
:100BF00005682A511A0030321204120C8024A40213
:100C00002243F02506687251703D28220668725111
:100C10001A0040321204120C224384260768BA518B
:100C200048331B041B0C234388220468A3509023E1
:100C30000268D1500E4B802252025A51BFF34F8F9F
:100C4000BFF36F8F8131FF315A501A600368012260
:100C5000DA653BE7001C00420020004288010020CA
:100C60000000002003010002B4020020D40A00208A
:100C700000E100E0D406002000004080B40600201F
:100C800070B51A4B1D682B681C6DE30714D4A305BF
:100C900016D4A30118D4E3011BD4230207D5EB68B3
:100CA0002A68526C920619D502212800984723071A
:100CB00016D42B681C6570BD2800AB689847E6E722
:100CC00028006B689847E4E703212800EB68984701
:100CD000E1E700212800EB689847DEE70121E4E71F
:100CE00004212800EB689847E3E7C046880100200C
:100CF00070B51A4BDD6A2B681C6DE30714D4A3058D
:100D000016D4A30118D4E3011BD4230207D5EB6842
:100D10002A68526C920619D50221280098472307A9
:100D200016D42B681C6570BD2800AB689847E6E7B1
:100D300028006B689847E4E703212800EB68984790
:100D4000E1E700212800EB689847DEE70121E4E7AE
:100D500004212800EB689847E3E7C046880100209B
:100D600043B2002B07DB1F2318401E3B8340802229
:100D7000520001498B50704700E100E010B5084B6C
:100D80005A685A60074B9847074B9847074B984754
:100D9000074B9847FF20074B9847074B984710BDD4
:100DA000004000418D0E0000A90E0000F10D000072
:100DB000E50E0000CD0D0000BD0D00009022D20513
:100DC000137802218B43137070470000C30707D5C7
:100DD000044A054B1A62044B5A68044B1A42FAD172
:100DE0007047C04606010100001C0040FD070000DE
:100DF0000122014B1A7170470008004070B50500D0
:100E00000C0000281CD0104B99421BD00020462219
:100E10000E490F4B98472C6162689E231340636014
:100E20000C4B1D600C4B402280215A50BFF34F8F5A
:100E3000BFF36F8F0131FF315A501A60002070BD2F
:100E40000020E4E70120E2E700400041F418000040
:100E50003D0A0000E001002000E100E010B50A4B6F
:100E6000186803691A7DD20704D50368002B00D0E7
:100E7000984710BD1A7D9207FBD502221A75436868
:100E8000002BF6D09847F4E7E0010020054AD3692B
:100E90001B0A1B02F82149010B40D3610123136196
:100EA0007047C046001400400D4B02221A750932EB
:100EB0005A750B4B9B695B07FBD4094B9B695B071E
:100EC000FBD40722064B9A75054BDB68DB06FBD586
:100ED000034A137D802149420B43DBB213757047EF
:100EE000001000407047C268116213699B06FCD471
:100EF0007047C26813699B06FCD4106A70470000F3
:100F0000C1680A69034B1A42FBD10B885B080120B8
:100F10001840704703800000704710B50400C36894
:100F20009B89DB0507D50368002B00D09847E36851
:100F3000802252009A8110BD70B504000D00431E3E
:100F40009841C0B230221149114B9847E560012306
:100F50002B802A690F4B1A42FBD1E3681A69D2072A
:100F6000FCD40D4A1A8019690A4A1142FBD1E26881
:100F70002023136213699B06FCD480235B00E26884
:100F80005381064B1C60002070BDC0461419000040
:100F90003D0A0000038000008080FFFFE401002084
:100FA00010B5041E19D0C368002B14D001205022A4
:100FB0000B490C4B9847042180230B4AD150BFF3B7
:100FC0004F8FBFF36F8FE1687F3B0B800A69074B40
:100FD0001A42FBD110BD0020E9E70020E7E7C04638
:100FE000141900003D0A000000E100E00380000049
:100FF00010B5041E20D0C368002B1BD001205C223A
:101000000E490F4B984704220E4B1A60E2680023EA
:10101000936113691B07FCD4E3681A691207FCD4B7
:101020001A8802210A4392B21A801969064A1142AB
:10103000FBD110BD0020E2E70020E0E7141900001A
:101040003D0A000000E100E00380000010B5041E2E
:1010500013D0C368002B0ED0012069220849094B28
:101060009847E1680B88022293430B800A69064B7C
:101070001A42FBD110BD0020EFE70020EDE7C0468B
:10108000141900003D0A000003800000004870476A
:101090002800002010B5024B1868024B984710BD7D
:1010A000E40100201B0F0000024B9C466044800AB4
:1010B000C0B2704700FCFFBD70B506000C00080010
:1010C000714B98470023002B00D184E00025002EAF
:1010D00000D18DE0002C00D188E001206B4A6C49E2
:1010E0006C4B9847002D00D1CBE0E369DB0721D49E
:1010F0002A786B781B021343AA7812041343EA7808
:1011000012061A431C231A40E3699B07FCD123688B
:101110009B0709D5236802218B432360E3699B0762
:10112000FCD1E3699B07FCD4012313432360E369EB
:101130009B07FCD1E369DB07FCD434602B786A7829
:1011400012021A43AB781B041A43EB781B061343B5
:101150001C221340082B4DD0002C00D18DE0002D17
:1011600000D188E001204C4A49494A4B98472B78E6
:101170006A7812021A43AB781B041A43EB781B06F9
:101180001343464A13402360E3699B07FCD12B7944
:101190006A7912021A43AB791B041A43EB791B06D6
:1011A00013433F4A13408022920213436360E36972
:1011B0005B07FCD12B7B23736A7B3023E2542B79B2
:1011C0005B075CD101233371AA7BEB7B1B021343CA
:1011D000F380002070BD012802D00133DBB272E73A
:1011E0001D01EA182F4D3C35AD1870E7002075E75A
:1011F000002073E7002C3CD0002D38D001202A4A73
:101200002349244B98472B786A7812021A43AB780B
:101210001B041A43EB781B061343204A1340236038
:10122000E3699B07FCD12B796A7912021A43AB79E7
:101230001B041A43EB791B0613431C4A13401C4A38
:1012400013436360E3695B07FCD12B7A6A7A12026D
:101250001A43AB7A1B041A43EB7A1B0613436362EF
:101260006A7B3023E254E369002BFCD1A7E700201E
:10127000C5E70020C3E7002075E7002073E70223DD
:10128000A1E70D204042A5E7A910000025090000B4
:101290007C1900003D0A0000EF080000FCFEFFFF83
:1012A000BF1DFDFF2C19000003090000BFDDFDFF7D
:1012B00040020200F0B5CE46474680B589B081466F
:1012C0000D0004680B6803934B6804930023059397
:1012D00006930679002814D0002C10D00120374A3C
:1012E0003749384B9847E3695B0764D1E3699B074B
:1012F000FCD123689B0720D41420404256E00020F4
:10130000EDE70020EBE700222DE048780002474699
:101310000743B84602310391013205924246A26268
:101320005BB2002B35DB002000283ADB0598AB6868
:10133000984202D3069A934233D9237EDBB25A07EE
:10134000E1D5A16A049A002A08D0501C04901170BB
:10135000012E03D9901C0490090A5170069A01923B
:10136000013206920122002ADAD10699059A9142A9
:10137000D6D34946C888D907D2D50399002906D0C3
:10138000481C039008788046012EBED8C4E78046EA
:10139000C2E701235B4263838133237613204042FB
:1013A000C2E7237E9B07FCD00323237609B00CBC45
:1013B00090469946F0BD04204042F7E7850A0000B8
:1013C0007C1900003D0A0000C268136802210B432B
:1013D000136013699B07FCD17047C2681368022130
:1013E0008B43136013699B07FCD17047C36818686F
:1013F000800803220240022A0AD01A689208920743
:101400000CD189B299831A69C0211142FBD170476E
:10141000D9611A69C0211142FBD1F8E71868800828
:1014200003220240012AF2D1C9B2D9761A69920682
:10143000FCD4ECE7C3681968890803220A40022A31
:101440000AD01A68920892070CD11A69C021114279
:10145000FBD1988B80B270471A69C0211142FBD131
:10146000D869F8E71968890803220A40012A01D0DF
:101470000020F0E71A699206FCD4D87EC0B2EAE7F1
:10148000C26813699B07FCD113685B0801201840F0
:10149000704710B5C3689A7AD20700D410BD0122F4
:1014A0009A7203689847F9E7034B984200D0704757
:1014B000024B1960FBE7C04600300042E801002003
:1014C00010B5114B984210D0104B9C466044800AD6
:1014D000C3B2002000280AD04A22FF320C49002063
:1014E0000C4B98470120404210BD0423F1E78200D5
:1014F00012189100084A8A5C9A4202D00130C0B2A8
:10150000E8E740B2F0E7C0460040004200D0FFBD2F
:10151000AC1900003D0A00009819000070B50600E3
:101520000C0008005E4B98470500F4609A225D4964
:1015300001205D4B98472369DB0714D423699B077F
:10154000FCD123689B0709D52368022293432360BB
:1015500023699B07FCD123699B07FCD401232360EB
:1015600023699B07FCD12369DB07FCD4AB005B1923
:101570009A004E4B9B185B68236023699B07FCD144
:10158000AA0052199100494B5B189A7AE2731A89A2
:10159000E280012222735A680C231340082B51D099
:1015A000002B5ED1AB005B199A00404B9B189B89C6
:1015B000A3832369C0221A42FBD10023E38323695A
:1015C000C0221A42FBD10123637231002000384B44
:1015D0009847AB005B199A00344B9B185B785BB261
:1015E000002B0BDB1F2213401E3A9A40130080226F
:1015F00030498B50BFF34F8FBFF36F8FAB005B1938
:101600009A002A4B9B185B785BB2002B08DB1F22E9
:1016100013401E3A9A401300C022520025498B50B5
:10162000AB005D19AA00214B9B185B785BB2002BC5
:1016300006DB1F2213401E3A9A4013001D4A136016
:10164000002070BD194B5B18DB68E3612369C02281
:101650001A42FBD1002323622369C0221A42FBD124
:10166000B1E7042BAFD1AB005B199A000F4B9B186D
:101670001B7B23772369C0221A42FBD100236377A7
:101680002369C0221A42FBD1AB005B199A00074BB9
:101690009B18DB7AE37623699B06FCD493E7C0466C
:1016A000C1140000AC1900003D0A000098190000A8
:1016B000A914000000E100E070B5C4682000164BDA
:1016C00098470500C72215490120154B9847A800E7
:1016D00040198200134B9B185B785BB2002B0BDB2D
:1016E0001F2213401E3A9A40130080220E498B504D
:1016F000BFF34F8FBFF36F8F2368022293432360A2
:1017000023699B07FCD123680122134323602369CB
:10171000DB07FCD470BDC046C1140000AC1900004A
:101720003D0A00009819000000E100E010B5C06813
:10173000084B984704008E22520007490120074BAE
:101740009847A00000198200054B9B185878054B5C
:10175000984710BDC1140000AC1900003D0A0000FC
:1017600098190000610D00000048704748000020F3
:1017700010B5024B1868024B984710BDE8010020D5
:101780009314000010B5041E27D00368002B22D04C
:10179000012050221549164B984723689A680E215C
:1017A0001142FBD11A78D20919D19A680E2111423F
:1017B000FBD11A78920715D41A780A398A431A701D
:1017C0009A680E211142FBD12268537801318B4374
:1017D0005370002010BD0020DBE70020D9E7112066
:1017E0004042F7E711204042F4E7C046C01900002C
:1017F0003D0A000010B5024B9847024B9847FEE7A0
:101800001D010000C504000070B500260C4D0D4CF4
:10181000641BA410A64209D1002600F0DDF80A4D91
:101820000A4C641BA410A64205D170BDB300EB584E
:1018300098470136EEE7B300EB5898470136F2E7D8
:10184000E4190000E4190000E4190000E8190000A0
:101850002E2E2F68616C2F696E636C7564652F681E
:10186000616C5F7764742E68000000002E2E2F6874
:10187000616C2F7372632F68616C5F63616E5F616F
:1018800073796E632E6300002E2E2F68616C2F73A8
:1018900072632F68616C5F666C6173682E63000011
:1018A0002E2E2F68616C2F7372632F68616C5F73CB
:1018B00070695F6D5F73796E632E63002E2E2F68E3
:1018C000616C2F7372632F68616C5F74696D6572F0
:1018D0002E6300002E2E2F68616C2F7574696C7357
:1018E0002F7372632F7574696C735F6C6973742ED8
:1018F000630000002E2E2F68706C2F6E766D63745F
:10190000726C2F68706C5F6E766D6374726C2E6390
:10191000000000002E2E2F68706C2F7274632F68E9
:10192000706C5F7274632E630000000000000000A2
:1019300000000000000000000000000000000000A7
:101940000000000000000000000000000000000097
:101950000000000000000000000000000000000087
:1019600000000000000000000C0001000000020068
:10197000000000002700FF01010000002E2E2F684C
:10198000706C2F736572636F6D2F68706C5F736519
:1019900072636F6D2E6300000014000008030000E6
:1019A00000000000F4010000000000002E2E2F684F
:1019B000706C2F74632F68706C5F74632E6300000B
:1019C0002E2E2F68706C2F7764742F68706C5F7781
:1019D00064742E6300000000F8B5C046F8BC08BC73
:1019E0009E467047E5000000F8B5C046F8BC08BC4C
:0819F0009E467047BD00000097
:1019F800B4020020D40A00208C0100209C010020A1
:101A0800A4010020D4060020B4060020B80100205C
:101A1800C8010020D0010020390F0000A10F0000EC
:101A2800F10F00004D100000E70E0000F30E00005B
:101A3800010F0000190F00001D150000B916000065
:101A4800C9130000DB130000ED130000351400007B
:081A5800811400002D170000AD
:00000001FF
